{
  "contractName": "Cryeator",
  "abi": [
    {
      "inputs": [],
      "stateMutability": "nonpayable",
      "type": "constructor"
    },
    {
      "anonymous": false,
      "inputs": [
        {
          "indexed": true,
          "internalType": "address",
          "name": "addr",
          "type": "address"
        }
      ],
      "name": "AddedTeam",
      "type": "event"
    },
    {
      "anonymous": false,
      "inputs": [
        {
          "indexed": true,
          "internalType": "address",
          "name": "_owner",
          "type": "address"
        },
        {
          "indexed": true,
          "internalType": "address",
          "name": "_spender",
          "type": "address"
        },
        {
          "indexed": false,
          "internalType": "uint256",
          "name": "_value",
          "type": "uint256"
        }
      ],
      "name": "Approval",
      "type": "event"
    },
    {
      "anonymous": false,
      "inputs": [
        {
          "indexed": true,
          "internalType": "address",
          "name": "_from",
          "type": "address"
        },
        {
          "indexed": false,
          "internalType": "uint256",
          "name": "amount",
          "type": "uint256"
        }
      ],
      "name": "Burn",
      "type": "event"
    },
    {
      "anonymous": false,
      "inputs": [
        {
          "indexed": true,
          "internalType": "address",
          "name": "addr",
          "type": "address"
        }
      ],
      "name": "RemoveTeam",
      "type": "event"
    },
    {
      "anonymous": false,
      "inputs": [
        {
          "indexed": false,
          "internalType": "bool",
          "name": "status",
          "type": "bool"
        }
      ],
      "name": "ToggleTaxStatus",
      "type": "event"
    },
    {
      "anonymous": false,
      "inputs": [
        {
          "indexed": true,
          "internalType": "address",
          "name": "_from",
          "type": "address"
        },
        {
          "indexed": true,
          "internalType": "address",
          "name": "_to",
          "type": "address"
        },
        {
          "indexed": false,
          "internalType": "uint256",
          "name": "_value",
          "type": "uint256"
        }
      ],
      "name": "Transfer",
      "type": "event"
    },
    {
      "anonymous": false,
      "inputs": [
        {
          "indexed": false,
          "internalType": "uint256",
          "name": "percent",
          "type": "uint256"
        }
      ],
      "name": "UpdatedBurnTaxPercent",
      "type": "event"
    },
    {
      "anonymous": false,
      "inputs": [
        {
          "indexed": true,
          "internalType": "uint256",
          "name": "percent",
          "type": "uint256"
        }
      ],
      "name": "UpdatedTax",
      "type": "event"
    },
    {
      "inputs": [
        {
          "internalType": "address",
          "name": "addr",
          "type": "address"
        }
      ],
      "name": "addTeamWallet",
      "outputs": [],
      "stateMutability": "nonpayable",
      "type": "function"
    },
    {
      "inputs": [],
      "name": "burnTaxPercent",
      "outputs": [
        {
          "internalType": "uint256",
          "name": "",
          "type": "uint256"
        }
      ],
      "stateMutability": "view",
      "type": "function",
      "constant": true
    },
    {
      "inputs": [],
      "name": "decimals",
      "outputs": [
        {
          "internalType": "uint8",
          "name": "",
          "type": "uint8"
        }
      ],
      "stateMutability": "view",
      "type": "function",
      "constant": true
    },
    {
      "inputs": [
        {
          "internalType": "address",
          "name": "addr",
          "type": "address"
        }
      ],
      "name": "isTeam",
      "outputs": [
        {
          "internalType": "bool",
          "name": "",
          "type": "bool"
        }
      ],
      "stateMutability": "view",
      "type": "function",
      "constant": true
    },
    {
      "inputs": [],
      "name": "name",
      "outputs": [
        {
          "internalType": "string",
          "name": "",
          "type": "string"
        }
      ],
      "stateMutability": "view",
      "type": "function",
      "constant": true
    },
    {
      "inputs": [],
      "name": "owner",
      "outputs": [
        {
          "internalType": "address",
          "name": "",
          "type": "address"
        }
      ],
      "stateMutability": "view",
      "type": "function",
      "constant": true
    },
    {
      "inputs": [
        {
          "internalType": "address",
          "name": "addr",
          "type": "address"
        }
      ],
      "name": "removeTeamWallet",
      "outputs": [],
      "stateMutability": "nonpayable",
      "type": "function"
    },
    {
      "inputs": [],
      "name": "symbol",
      "outputs": [
        {
          "internalType": "string",
          "name": "",
          "type": "string"
        }
      ],
      "stateMutability": "view",
      "type": "function",
      "constant": true
    },
    {
      "inputs": [],
      "name": "taxPercent",
      "outputs": [
        {
          "internalType": "uint256",
          "name": "",
          "type": "uint256"
        }
      ],
      "stateMutability": "view",
      "type": "function",
      "constant": true
    },
    {
      "inputs": [],
      "name": "taxStatus",
      "outputs": [
        {
          "internalType": "bool",
          "name": "",
          "type": "bool"
        }
      ],
      "stateMutability": "view",
      "type": "function",
      "constant": true
    },
    {
      "inputs": [],
      "name": "taxWallet",
      "outputs": [
        {
          "internalType": "address",
          "name": "",
          "type": "address"
        }
      ],
      "stateMutability": "view",
      "type": "function",
      "constant": true
    },
    {
      "inputs": [],
      "name": "toggleTaxStatus",
      "outputs": [],
      "stateMutability": "nonpayable",
      "type": "function"
    },
    {
      "inputs": [],
      "name": "totalSupply",
      "outputs": [
        {
          "internalType": "uint256",
          "name": "",
          "type": "uint256"
        }
      ],
      "stateMutability": "view",
      "type": "function",
      "constant": true
    },
    {
      "inputs": [
        {
          "internalType": "uint256",
          "name": "percent",
          "type": "uint256"
        }
      ],
      "name": "updateBurnTaxPercent",
      "outputs": [],
      "stateMutability": "nonpayable",
      "type": "function"
    },
    {
      "inputs": [
        {
          "internalType": "uint256",
          "name": "percent",
          "type": "uint256"
        }
      ],
      "name": "updateTax",
      "outputs": [],
      "stateMutability": "nonpayable",
      "type": "function"
    },
    {
      "inputs": [
        {
          "internalType": "address",
          "name": "_owner",
          "type": "address"
        }
      ],
      "name": "balanceOf",
      "outputs": [
        {
          "internalType": "uint256",
          "name": "balance",
          "type": "uint256"
        }
      ],
      "stateMutability": "view",
      "type": "function",
      "constant": true
    },
    {
      "inputs": [
        {
          "internalType": "uint256",
          "name": "value",
          "type": "uint256"
        }
      ],
      "name": "burn",
      "outputs": [],
      "stateMutability": "nonpayable",
      "type": "function"
    },
    {
      "inputs": [
        {
          "internalType": "address",
          "name": "_to",
          "type": "address"
        },
        {
          "internalType": "uint256",
          "name": "_value",
          "type": "uint256"
        }
      ],
      "name": "transfer",
      "outputs": [
        {
          "internalType": "bool",
          "name": "success",
          "type": "bool"
        }
      ],
      "stateMutability": "nonpayable",
      "type": "function"
    },
    {
      "inputs": [
        {
          "internalType": "address",
          "name": "_from",
          "type": "address"
        },
        {
          "internalType": "address",
          "name": "_to",
          "type": "address"
        },
        {
          "internalType": "uint256",
          "name": "_value",
          "type": "uint256"
        }
      ],
      "name": "transferFrom",
      "outputs": [
        {
          "internalType": "bool",
          "name": "success",
          "type": "bool"
        }
      ],
      "stateMutability": "nonpayable",
      "type": "function"
    },
    {
      "inputs": [
        {
          "internalType": "address",
          "name": "_spender",
          "type": "address"
        },
        {
          "internalType": "uint256",
          "name": "_value",
          "type": "uint256"
        }
      ],
      "name": "approve",
      "outputs": [
        {
          "internalType": "bool",
          "name": "success",
          "type": "bool"
        }
      ],
      "stateMutability": "nonpayable",
      "type": "function"
    },
    {
      "inputs": [
        {
          "internalType": "address",
          "name": "_owner",
          "type": "address"
        },
        {
          "internalType": "address",
          "name": "_spender",
          "type": "address"
        }
      ],
      "name": "allowance",
      "outputs": [
        {
          "internalType": "uint256",
          "name": "remaining",
          "type": "uint256"
        }
      ],
      "stateMutability": "view",
      "type": "function",
      "constant": true
    }
  ],
  "bytecode": "0x60806040526040518060400160405280600881526020017f4372796561746f720000000000000000000000000000000000000000000000008152506008908051906020019062000051929190620003dc565b506012600960006101000a81548160ff021916908360ff1602179055506040518060400160405280600481526020017f4352595400000000000000000000000000000000000000000000000000000000815250600a9080519060200190620000bb929190620003dc565b50348015620000c957600080fd5b506107cf600060016101000a81548173ffffffffffffffffffffffffffffffffffffffff021916908373ffffffffffffffffffffffffffffffffffffffff16021790555033600360006101000a81548173ffffffffffffffffffffffffffffffffffffffff021916908373ffffffffffffffffffffffffffffffffffffffff1602179055506006600181905550601460028190555062000191600360009054906101000a900473ffffffffffffffffffffffffffffffffffffffff16620001e560201b60201c565b620001df620001a56200029f60201b60201c565b600960009054906101000a900460ff16600a620001c3919062000626565b620186a0620001d3919062000677565b620002a760201b60201c565b620007c8565b620001f6816200038660201b60201c565b156200020157600080fd5b6001600460008373ffffffffffffffffffffffffffffffffffffffff1673ffffffffffffffffffffffffffffffffffffffff16815260200190815260200160002060006101000a81548160ff0219169083151502179055508073ffffffffffffffffffffffffffffffffffffffff167f8ba342ea87fd671d1f8ba6c775202ebb84506d6e90c0a968634e966ad9e587f360405160405180910390a250565b600033905090565b80600560008473ffffffffffffffffffffffffffffffffffffffff1673ffffffffffffffffffffffffffffffffffffffff1681526020019081526020016000206000828254620002f89190620006d8565b925050819055508060076000828254620003139190620006d8565b925050819055508173ffffffffffffffffffffffffffffffffffffffff16600073ffffffffffffffffffffffffffffffffffffffff167fddf252ad1be2c89b69c2b068fc378daa952ba7f163c4a11628f55a4df523b3ef836040516200037a919062000746565b60405180910390a35050565b6000600460008373ffffffffffffffffffffffffffffffffffffffff1673ffffffffffffffffffffffffffffffffffffffff16815260200190815260200160002060009054906101000a900460ff169050919050565b828054620003ea9062000792565b90600052602060002090601f0160209004810192826200040e57600085556200045a565b82601f106200042957805160ff19168380011785556200045a565b828001600101855582156200045a579182015b82811115620004595782518255916020019190600101906200043c565b5b5090506200046991906200046d565b5090565b5b80821115620004885760008160009055506001016200046e565b5090565b7f4e487b7100000000000000000000000000000000000000000000000000000000600052601160045260246000fd5b60008160011c9050919050565b6000808291508390505b60018511156200051a57808604811115620004f257620004f16200048c565b5b6001851615620005025780820291505b80810290506200051285620004bb565b9450620004d2565b94509492505050565b60008262000535576001905062000608565b8162000545576000905062000608565b81600181146200055e576002811462000569576200059f565b600191505062000608565b60ff8411156200057e576200057d6200048c565b5b8360020a9150848211156200059857620005976200048c565b5b5062000608565b5060208310610133831016604e8410600b8410161715620005d95782820a905083811115620005d357620005d26200048c565b5b62000608565b620005e88484846001620004c8565b925090508184048111156200060257620006016200048c565b5b81810290505b9392505050565b6000819050919050565b600060ff82169050919050565b600062000633826200060f565b9150620006408362000619565b92506200066f7fffffffffffffffffffffffffffffffffffffffffffffffffffffffffffffffff848462000523565b905092915050565b600062000684826200060f565b915062000691836200060f565b9250817fffffffffffffffffffffffffffffffffffffffffffffffffffffffffffffffff0483118215151615620006cd57620006cc6200048c565b5b828202905092915050565b6000620006e5826200060f565b9150620006f2836200060f565b9250827fffffffffffffffffffffffffffffffffffffffffffffffffffffffffffffffff038211156200072a57620007296200048c565b5b828201905092915050565b62000740816200060f565b82525050565b60006020820190506200075d600083018462000735565b92915050565b7f4e487b7100000000000000000000000000000000000000000000000000000000600052602260045260246000fd5b60006002820490506001821680620007ab57607f821691505b60208210811415620007c257620007c162000763565b5b50919050565b6118f780620007d86000396000f3fe608060405234801561001057600080fd5b50600436106101375760003560e01c80637541f41c116100b8578063a9059cbb1161007c578063a9059cbb14610340578063b5392ba414610370578063ca7e12af1461038c578063cca0feb6146103aa578063dd62ed3e146103c6578063ec118713146103f657610137565b80637541f41c146102ae57806388c7c85c146102cc5780638da5cb5b146102e857806395d89b4114610306578063a3714a5b1461032457610137565b806324851914116100ff57806324851914146101f65780632dc0562d14610226578063313ce5671461024457806342966c681461026257806370a082311461027e57610137565b806306fdde031461013c578063095ea7b31461015a57806318160ddd1461018a57806323a38a38146101a857806323b872dd146101c6575b600080fd5b610144610400565b6040516101519190611294565b60405180910390f35b610174600480360381019061016f919061134f565b61048e565b60405161018191906113aa565b60405180910390f35b61019261058c565b60405161019f91906113d4565b60405180910390f35b6101b0610592565b6040516101bd91906113aa565b60405180910390f35b6101e060048036038101906101db91906113ef565b6105a3565b6040516101ed91906113aa565b60405180910390f35b610210600480360381019061020b9190611442565b6106ac565b60405161021d91906113aa565b60405180910390f35b61022e610702565b60405161023b919061147e565b60405180910390f35b61024c610728565b60405161025991906114b5565b60405180910390f35b61027c600480360381019061027791906114d0565b61073b565b005b61029860048036038101906102939190611442565b610755565b6040516102a591906113d4565b60405180910390f35b6102b661079e565b6040516102c391906113d4565b60405180910390f35b6102e660048036038101906102e19190611442565b6107a4565b005b6102f0610855565b6040516102fd919061147e565b60405180910390f35b61030e61087b565b60405161031b9190611294565b60405180910390f35b61033e60048036038101906103399190611442565b610909565b005b61035a6004803603810190610355919061134f565b6109b9565b60405161036791906113aa565b60405180910390f35b61038a600480360381019061038591906114d0565b6109d7565b005b610394610a18565b6040516103a191906113d4565b60405180910390f35b6103c460048036038101906103bf91906114d0565b610a1e565b005b6103e060048036038101906103db91906114fd565b610a55565b6040516103ed91906113d4565b60405180910390f35b6103fe610adc565b005b6008805461040d9061156c565b80601f01602080910402602001604051908101604052809291908181526020018280546104399061156c565b80156104865780601f1061045b57610100808354040283529160200191610486565b820191906000526020600020905b81548152906001019060200180831161046957829003601f168201915b505050505081565b600080610499610bd9565b905082600660008373ffffffffffffffffffffffffffffffffffffffff1673ffffffffffffffffffffffffffffffffffffffff16815260200190815260200160002060008673ffffffffffffffffffffffffffffffffffffffff1673ffffffffffffffffffffffffffffffffffffffff168152602001908152602001600020819055508373ffffffffffffffffffffffffffffffffffffffff168173ffffffffffffffffffffffffffffffffffffffff167f8c5be1e5ebec7d5bd14f71427d1e84f3dd0314c0f7b2291e5b200ac8c7c3b9258560405161057991906113d4565b60405180910390a3600191505092915050565b60075481565b60008054906101000a900460ff1681565b6000806105ae610bd9565b905060006105bc8683610a55565b905083811015610601576040517f08c379a00000000000000000000000000000000000000000000000000000000081526004016105f8906115ea565b60405180910390fd5b83600660008873ffffffffffffffffffffffffffffffffffffffff1673ffffffffffffffffffffffffffffffffffffffff16815260200190815260200160002060008473ffffffffffffffffffffffffffffffffffffffff1673ffffffffffffffffffffffffffffffffffffffff168152602001908152602001600020600082825461068d9190611639565b9250508190555061069f868686610be1565b6001925050509392505050565b6000600460008373ffffffffffffffffffffffffffffffffffffffff1673ffffffffffffffffffffffffffffffffffffffff16815260200190815260200160002060009054906101000a900460ff169050919050565b600060019054906101000a900473ffffffffffffffffffffffffffffffffffffffff1681565b600960009054906101000a900460ff1681565b6000610745610bd9565b90506107518183610ed6565b5050565b6000600560008373ffffffffffffffffffffffffffffffffffffffff1673ffffffffffffffffffffffffffffffffffffffff168152602001908152602001600020549050919050565b60015481565b6107ad816106ac565b156107b757600080fd5b6001600460008373ffffffffffffffffffffffffffffffffffffffff1673ffffffffffffffffffffffffffffffffffffffff16815260200190815260200160002060006101000a81548160ff0219169083151502179055508073ffffffffffffffffffffffffffffffffffffffff167f8ba342ea87fd671d1f8ba6c775202ebb84506d6e90c0a968634e966ad9e587f360405160405180910390a250565b600360009054906101000a900473ffffffffffffffffffffffffffffffffffffffff1681565b600a80546108889061156c565b80601f01602080910402602001604051908101604052809291908181526020018280546108b49061156c565b80156109015780601f106108d657610100808354040283529160200191610901565b820191906000526020600020905b8154815290600101906020018083116108e457829003601f168201915b505050505081565b610912816106ac565b61091b57600080fd5b6000600460008373ffffffffffffffffffffffffffffffffffffffff1673ffffffffffffffffffffffffffffffffffffffff16815260200190815260200160002060006101000a81548160ff0219169083151502179055508073ffffffffffffffffffffffffffffffffffffffff167f5c29245bbd301fef23b6f829c9f626a9fbfd59981ae243f9dc88ef6ce23c8b6e60405160405180910390a250565b60006109cd6109c6610bd9565b8484610be1565b6001905092915050565b806002819055507feb04c8f03412f2d5ea087f5ebc4195a82bab5143644e1a7ef95435e9ad5a5a0281604051610a0d91906113d4565b60405180910390a150565b60025481565b80600181905550807f5582bb85c6567acbabcb3b1166d082a7a8215af3f33d510a94139c82b8d4904360405160405180910390a250565b6000600660008473ffffffffffffffffffffffffffffffffffffffff1673ffffffffffffffffffffffffffffffffffffffff16815260200190815260200160002060008373ffffffffffffffffffffffffffffffffffffffff1673ffffffffffffffffffffffffffffffffffffffff16815260200190815260200160002054905092915050565b600360009054906101000a900473ffffffffffffffffffffffffffffffffffffffff1673ffffffffffffffffffffffffffffffffffffffff163373ffffffffffffffffffffffffffffffffffffffff1614610b6c576040517f08c379a0000000000000000000000000000000000000000000000000000000008152600401610b63906116b9565b60405180910390fd5b60008054906101000a900460ff16156000806101000a81548160ff0219169083151502179055507fce5b487ee3ab4cdb5fece723488026388ad019d4c0de144ffe2001d5d0f2284760008054906101000a900460ff16604051610bcf91906113aa565b60405180910390a1565b600033905090565b600073ffffffffffffffffffffffffffffffffffffffff168373ffffffffffffffffffffffffffffffffffffffff1614158015610c4b5750600073ffffffffffffffffffffffffffffffffffffffff168273ffffffffffffffffffffffffffffffffffffffff1614155b610c8a576040517f08c379a0000000000000000000000000000000000000000000000000000000008152600401610c8190611725565b60405180910390fd5b80610c9484610755565b1015610cd5576040517f08c379a0000000000000000000000000000000000000000000000000000000008152600401610ccc90611791565b60405180910390fd5b600081118015610d4957503073ffffffffffffffffffffffffffffffffffffffff168373ffffffffffffffffffffffffffffffffffffffff1614158015610d4857508173ffffffffffffffffffffffffffffffffffffffff163073ffffffffffffffffffffffffffffffffffffffff1614155b5b8015610d83575060008054906101000a900460ff168015610d705750610d6e836106ac565b155b8015610d825750610d80826106ac565b155b5b15610dc0576000606460015483610d9a91906117b1565b610da4919061183a565b90508082610db29190611639565b9150610dbe8482611048565b505b80600560008473ffffffffffffffffffffffffffffffffffffffff1673ffffffffffffffffffffffffffffffffffffffff1681526020019081526020016000206000828254610e0f919061186b565b9250508190555080600560008573ffffffffffffffffffffffffffffffffffffffff1673ffffffffffffffffffffffffffffffffffffffff1681526020019081526020016000206000828254610e659190611639565b925050819055508173ffffffffffffffffffffffffffffffffffffffff168373ffffffffffffffffffffffffffffffffffffffff167fddf252ad1be2c89b69c2b068fc378daa952ba7f163c4a11628f55a4df523b3ef83604051610ec991906113d4565b60405180910390a3505050565b80610ee083610755565b1015610f21576040517f08c379a0000000000000000000000000000000000000000000000000000000008152600401610f1890611791565b60405180910390fd5b80600560008473ffffffffffffffffffffffffffffffffffffffff1673ffffffffffffffffffffffffffffffffffffffff1681526020019081526020016000206000828254610f709190611639565b925050819055508060076000828254610f899190611639565b92505081905550600073ffffffffffffffffffffffffffffffffffffffff168273ffffffffffffffffffffffffffffffffffffffff167fddf252ad1be2c89b69c2b068fc378daa952ba7f163c4a11628f55a4df523b3ef83604051610fee91906113d4565b60405180910390a38173ffffffffffffffffffffffffffffffffffffffff167fcc16f5dbb4873280815c1ee09dbd06736cffcc184412cf7a71a0fdb75d397ca58260405161103c91906113d4565b60405180910390a25050565b600060646002548361105a91906117b1565b611064919061183a565b905080826110729190611639565b915061107e8382610ed6565b8161108884610755565b6110929190611639565b600560008573ffffffffffffffffffffffffffffffffffffffff1673ffffffffffffffffffffffffffffffffffffffff1681526020019081526020016000208190555081611101600060019054906101000a900473ffffffffffffffffffffffffffffffffffffffff16610755565b61110b919061186b565b600560008060019054906101000a900473ffffffffffffffffffffffffffffffffffffffff1673ffffffffffffffffffffffffffffffffffffffff1673ffffffffffffffffffffffffffffffffffffffff16815260200190815260200160002081905550600060019054906101000a900473ffffffffffffffffffffffffffffffffffffffff1673ffffffffffffffffffffffffffffffffffffffff168373ffffffffffffffffffffffffffffffffffffffff167fddf252ad1be2c89b69c2b068fc378daa952ba7f163c4a11628f55a4df523b3ef846040516111ee91906113d4565b60405180910390a3505050565b600081519050919050565b600082825260208201905092915050565b60005b8381101561123557808201518184015260208101905061121a565b83811115611244576000848401525b50505050565b6000601f19601f8301169050919050565b6000611266826111fb565b6112708185611206565b9350611280818560208601611217565b6112898161124a565b840191505092915050565b600060208201905081810360008301526112ae818461125b565b905092915050565b600080fd5b600073ffffffffffffffffffffffffffffffffffffffff82169050919050565b60006112e6826112bb565b9050919050565b6112f6816112db565b811461130157600080fd5b50565b600081359050611313816112ed565b92915050565b6000819050919050565b61132c81611319565b811461133757600080fd5b50565b60008135905061134981611323565b92915050565b60008060408385031215611366576113656112b6565b5b600061137485828601611304565b92505060206113858582860161133a565b9150509250929050565b60008115159050919050565b6113a48161138f565b82525050565b60006020820190506113bf600083018461139b565b92915050565b6113ce81611319565b82525050565b60006020820190506113e960008301846113c5565b92915050565b600080600060608486031215611408576114076112b6565b5b600061141686828701611304565b935050602061142786828701611304565b92505060406114388682870161133a565b9150509250925092565b600060208284031215611458576114576112b6565b5b600061146684828501611304565b91505092915050565b611478816112db565b82525050565b6000602082019050611493600083018461146f565b92915050565b600060ff82169050919050565b6114af81611499565b82525050565b60006020820190506114ca60008301846114a6565b92915050565b6000602082840312156114e6576114e56112b6565b5b60006114f48482850161133a565b91505092915050565b60008060408385031215611514576115136112b6565b5b600061152285828601611304565b925050602061153385828601611304565b9150509250929050565b7f4e487b7100000000000000000000000000000000000000000000000000000000600052602260045260246000fd5b6000600282049050600182168061158457607f821691505b602082108114156115985761159761153d565b5b50919050565b7f45524332303a20616c6c6f77616e636520746f6f206c6f770000000000000000600082015250565b60006115d4601883611206565b91506115df8261159e565b602082019050919050565b60006020820190508181036000830152611603816115c7565b9050919050565b7f4e487b7100000000000000000000000000000000000000000000000000000000600052601160045260246000fd5b600061164482611319565b915061164f83611319565b9250828210156116625761166161160a565b5b828203905092915050565b7f216f776e65720000000000000000000000000000000000000000000000000000600082015250565b60006116a3600683611206565b91506116ae8261166d565b602082019050919050565b600060208201905081810360008301526116d281611696565b9050919050565b7f4164647265737320756e737570706f7274656400000000000000000000000000600082015250565b600061170f601383611206565b915061171a826116d9565b602082019050919050565b6000602082019050818103600083015261173e81611702565b9050919050565b7f45524332303a2062616c616e636520746f6f206c6f7700000000000000000000600082015250565b600061177b601683611206565b915061178682611745565b602082019050919050565b600060208201905081810360008301526117aa8161176e565b9050919050565b60006117bc82611319565b91506117c783611319565b9250817fffffffffffffffffffffffffffffffffffffffffffffffffffffffffffffffff0483118215151615611800576117ff61160a565b5b828202905092915050565b7f4e487b7100000000000000000000000000000000000000000000000000000000600052601260045260246000fd5b600061184582611319565b915061185083611319565b9250826118605761185f61180b565b5b828204905092915050565b600061187682611319565b915061188183611319565b9250827fffffffffffffffffffffffffffffffffffffffffffffffffffffffffffffffff038211156118b6576118b561160a565b5b82820190509291505056fea2646970667358221220bf526b3663eb65e7137a190ebddd8820209edad2caf69e860e14874827b25b5364736f6c634300080c0033",
  "immutableReferences": {},
  "source": "// SPDX-License-Identifier: MIT\npragma solidity ^0.8.0;\n\ninterface IERC20 {\n    /// @param _owner The address from which the balance will be retrieved\n    /// @return balance the balance\n    function balanceOf(address _owner) external view returns (uint256 balance);\n\n    /// @notice send `_value` token to `_to` from `msg.sender`\n    /// @param _to The address of the recipient\n    /// @param _value The amount of token to be transferred\n    /// @return success Whether the transfer was successful or not\n    function transfer(\n        address _to,\n        uint256 _value\n    ) external returns (bool success);\n\n    /// @notice send `_value` token to `_to` from `_from` on the condition it is approved by `_from`\n    /// @param _from The address of the sender\n    /// @param _to The address of the recipient\n    /// @param _value The amount of token to be transferred\n    /// @return success Whether the transfer was successful or not\n    function transferFrom(\n        address _from,\n        address _to,\n        uint256 _value\n    ) external returns (bool success);\n\n    /// @notice `msg.sender` approves `_addr` to spend `_value` tokens\n    /// @param _spender The address of the account able to transfer the tokens\n    /// @param _value The amount of wei to be approved for transfer\n    /// @return success Whether the approval was successful or not\n    function approve(\n        address _spender,\n        uint256 _value\n    ) external returns (bool success);\n\n    /// @param _owner The address of the account owning tokens\n    /// @param _spender The address of the account able to transfer the tokens\n    /// @return remaining Amount of remaining tokens allowed to spent\n    function allowance(\n        address _owner,\n        address _spender\n    ) external view returns (uint256 remaining);\n\n    event Transfer(address indexed _from, address indexed _to, uint256 _value);\n    event Approval(\n        address indexed _owner,\n        address indexed _spender,\n        uint256 _value\n    );\n\n    event Burn(address indexed _from, uint256 amount);\n}\n\ncontract Team {\n    bool public taxStatus;\n    address public taxWallet;\n    uint256 public taxPercent;\n    uint256 public burnTaxPercent;\n    address public owner;\n\n    mapping(address => bool) private _taxFree;\n    event AddedTeam(address indexed addr);\n    event RemoveTeam(address indexed addr);\n    event UpdatedTax(uint256 indexed percent);\n    event ToggleTaxStatus(bool status);\n    event UpdatedBurnTaxPercent(uint256 percent);\n\n    constructor() {\n        taxWallet = address(1999); // change to team wallet\n        owner = msg.sender;\n        taxPercent = 6;\n        burnTaxPercent = 20;\n        addTeamWallet(owner);\n    }\n\n    modifier onlyOwer() {\n        require(msg.sender == owner, \"!owner\");\n        _;\n    }\n\n    function isTeam(address addr) public view returns (bool) {\n        return _taxFree[addr];\n    }\n\n    // add new team member wallet\n    function addTeamWallet(address addr) public {\n        require(!isTeam(addr));\n        _taxFree[addr] = true;\n        emit AddedTeam(addr);\n    }\n\n    // remove team wallet\n    function removeTeamWallet(address addr) public {\n        require(isTeam(addr));\n        _taxFree[addr] = false;\n        emit RemoveTeam(addr);\n    }\n\n    function updateBurnTaxPercent(uint256 percent) public {\n        burnTaxPercent = percent;\n        emit UpdatedBurnTaxPercent(percent);\n    }\n\n    function updateTax(uint256 percent) public {\n        taxPercent = percent;\n        emit UpdatedTax(percent);\n    }\n\n    function toggleTaxStatus() public onlyOwer {\n        taxStatus = !taxStatus;\n        emit ToggleTaxStatus(taxStatus);\n    }\n}\n\ncontract Cryeator is IERC20, Team {\n    mapping(address => uint256) private _balances;\n    mapping(address => mapping(address => uint256)) private _allowed;\n\n    uint256 public totalSupply;\n    string public name = \"Cryeator\";\n    uint8 public decimals = 18;\n    string public symbol = \"CRYT\";\n\n    constructor() {\n        _mint(_msgSender(), 100000 * 10 ** decimals);\n    }\n\n    function _msgSender() private view returns (address) {\n        return msg.sender;\n    }\n\n    function _mint(address _to, uint256 _value) private {\n        _balances[_to] += _value;\n        totalSupply += _value;\n        emit Transfer(address(0), _to, _value);\n    }\n\n    function balanceOf(address _owner) public view returns (uint256 balance) {\n        return _balances[_owner];\n    }\n\n    function _burn(address _from, uint256 _value) internal {\n        require(balanceOf(_from) >= _value, \"ERC20: balance too low\");\n        _balances[_from] -= _value;\n        totalSupply -= _value;\n        emit Transfer(_from, address(0), _value);\n        emit Burn(_from, _value);\n    }\n\n    function _payTax(address _from, uint256 _value) private {\n        // remove and burn X percent from the collected tax\n        uint256 _burnAmount = (_value * burnTaxPercent) / 100;\n        _value -= _burnAmount;\n        _burn(_from, _burnAmount);\n        _balances[_from] = balanceOf(_from) - _value;\n        _balances[taxWallet] = balanceOf(taxWallet) + _value;\n        emit Transfer(_from, taxWallet, _value);\n    }\n\n    function _transfer(address _from, address _to, uint256 _value) internal {\n        require(\n            _from != address(0) && _to != address(0),\n            \"Address unsupported\"\n        );\n        require(balanceOf(_from) >= _value, \"ERC20: balance too low\");\n\n        if (_value > 0 && (_from != address(this) && address(this) != _to) && (taxStatus && !isTeam(_from) && !isTeam(_to))) {\n            uint256 taxAmount = (_value * taxPercent) / 100;\n            _value -= taxAmount;\n            _payTax(_from, taxAmount);\n        }\n\n        _balances[_to] += _value;\n        _balances[_from] -= _value;\n        emit Transfer(_from, _to, _value);\n    }\n\n    function burn(uint256 value) public {\n        address _from = _msgSender();\n        _burn(_from, value);\n    }\n\n    function transfer(\n        address _to,\n        uint256 _value\n    ) public returns (bool success) {\n        _transfer(_msgSender(), _to, _value);\n        return true;\n    }\n\n    function transferFrom(\n        address _from,\n        address _to,\n        uint256 _value\n    ) public returns (bool success) {\n        address sender = _msgSender();\n        uint256 canSpend = allowance(_from, sender);\n        require(canSpend >= _value, \"ERC20: allowance too low\");\n\n        // update allowance\n        _allowed[_from][sender] -= _value;\n        // make transfer\n        _transfer(_from, _to, _value);\n        return true;\n    }\n\n    function approve(\n        address _spender,\n        uint256 _value\n    ) public returns (bool success) {\n        address _sender = _msgSender();\n        _allowed[_sender][_spender] = _value;\n        emit Approval(_sender, _spender, _value);\n        return true;\n    }\n\n    function allowance(\n        address _owner,\n        address _spender\n    ) public view returns (uint256 remaining) {\n        return _allowed[_owner][_spender];\n    }\n}\n",
  "sourcePath": "/home/john/Desktop/cryeator.com/contract/contracts/CryeatorToken.sol",
  "compiler": {
    "name": "solc",
    "version": "0.8.12+commit.f00d7308.Emscripten.clang"
  },
  "schemaVersion": "3.4.6",
  "updatedAt": "2023-10-11T22:05:32.250Z",
  "networkType": "ethereum",
  "devdoc": {
    "kind": "dev",
    "methods": {
      "allowance(address,address)": {
        "params": {
          "_owner": "The address of the account owning tokens",
          "_spender": "The address of the account able to transfer the tokens"
        },
        "returns": {
          "remaining": "Amount of remaining tokens allowed to spent"
        }
      },
      "approve(address,uint256)": {
        "params": {
          "_spender": "The address of the account able to transfer the tokens",
          "_value": "The amount of wei to be approved for transfer"
        },
        "returns": {
          "success": "Whether the approval was successful or not"
        }
      },
      "balanceOf(address)": {
        "params": {
          "_owner": "The address from which the balance will be retrieved"
        },
        "returns": {
          "balance": "the balance"
        }
      },
      "transfer(address,uint256)": {
        "params": {
          "_to": "The address of the recipient",
          "_value": "The amount of token to be transferred"
        },
        "returns": {
          "success": "Whether the transfer was successful or not"
        }
      },
      "transferFrom(address,address,uint256)": {
        "params": {
          "_from": "The address of the sender",
          "_to": "The address of the recipient",
          "_value": "The amount of token to be transferred"
        },
        "returns": {
          "success": "Whether the transfer was successful or not"
        }
      }
    },
    "version": 1
  },
  "userdoc": {
    "kind": "user",
    "methods": {
      "approve(address,uint256)": {
        "notice": "`msg.sender` approves `_addr` to spend `_value` tokens"
      },
      "transfer(address,uint256)": {
        "notice": "send `_value` token to `_to` from `msg.sender`"
      },
      "transferFrom(address,address,uint256)": {
        "notice": "send `_value` token to `_to` from `_from` on the condition it is approved by `_from`"
      }
    },
    "version": 1
  }
}