{
  "contractName": "CryeatorPackage",
  "abi": [
    {
      "inputs": [],
      "name": "ContentNotFound",
      "type": "error"
    },
    {
      "inputs": [],
      "name": "ContentRewardNotEnough",
      "type": "error"
    },
    {
      "inputs": [],
      "name": "DuplicatedContent",
      "type": "error"
    },
    {
      "inputs": [],
      "name": "withdrawAmountTooLow",
      "type": "error"
    },
    {
      "anonymous": false,
      "inputs": [
        {
          "indexed": true,
          "internalType": "address",
          "name": "addr",
          "type": "address"
        }
      ],
      "name": "AddedTeam",
      "type": "event"
    },
    {
      "anonymous": false,
      "inputs": [
        {
          "indexed": true,
          "internalType": "address",
          "name": "_owner",
          "type": "address"
        },
        {
          "indexed": true,
          "internalType": "address",
          "name": "_spender",
          "type": "address"
        },
        {
          "indexed": false,
          "internalType": "uint256",
          "name": "_value",
          "type": "uint256"
        }
      ],
      "name": "Approval",
      "type": "event"
    },
    {
      "anonymous": false,
      "inputs": [
        {
          "indexed": true,
          "internalType": "address",
          "name": "_from",
          "type": "address"
        },
        {
          "indexed": false,
          "internalType": "uint256",
          "name": "amount",
          "type": "uint256"
        }
      ],
      "name": "Burn",
      "type": "event"
    },
    {
      "anonymous": false,
      "inputs": [
        {
          "indexed": true,
          "internalType": "address",
          "name": "author",
          "type": "address"
        },
        {
          "indexed": true,
          "internalType": "string",
          "name": "contentID",
          "type": "string"
        }
      ],
      "name": "CreatedContent",
      "type": "event"
    },
    {
      "anonymous": false,
      "inputs": [
        {
          "indexed": true,
          "internalType": "address",
          "name": "liker",
          "type": "address"
        },
        {
          "indexed": true,
          "internalType": "address",
          "name": "creator",
          "type": "address"
        },
        {
          "indexed": true,
          "internalType": "string",
          "name": "contentID",
          "type": "string"
        },
        {
          "indexed": false,
          "internalType": "uint256",
          "name": "amount",
          "type": "uint256"
        }
      ],
      "name": "DislikeContent",
      "type": "event"
    },
    {
      "anonymous": false,
      "inputs": [
        {
          "indexed": true,
          "internalType": "address",
          "name": "liker",
          "type": "address"
        },
        {
          "indexed": true,
          "internalType": "address",
          "name": "creator",
          "type": "address"
        },
        {
          "indexed": true,
          "internalType": "string",
          "name": "contentID",
          "type": "string"
        },
        {
          "indexed": false,
          "internalType": "uint256",
          "name": "amount",
          "type": "uint256"
        }
      ],
      "name": "LikeContent",
      "type": "event"
    },
    {
      "anonymous": false,
      "inputs": [
        {
          "indexed": true,
          "internalType": "address",
          "name": "addr",
          "type": "address"
        }
      ],
      "name": "RemoveTeam",
      "type": "event"
    },
    {
      "anonymous": false,
      "inputs": [
        {
          "indexed": false,
          "internalType": "bool",
          "name": "status",
          "type": "bool"
        }
      ],
      "name": "ToggleTaxStatus",
      "type": "event"
    },
    {
      "anonymous": false,
      "inputs": [
        {
          "indexed": true,
          "internalType": "address",
          "name": "_from",
          "type": "address"
        },
        {
          "indexed": true,
          "internalType": "address",
          "name": "_to",
          "type": "address"
        },
        {
          "indexed": false,
          "internalType": "uint256",
          "name": "_value",
          "type": "uint256"
        }
      ],
      "name": "Transfer",
      "type": "event"
    },
    {
      "anonymous": false,
      "inputs": [
        {
          "indexed": false,
          "internalType": "uint256",
          "name": "percent",
          "type": "uint256"
        }
      ],
      "name": "UpdatedBurnTaxPercent",
      "type": "event"
    },
    {
      "anonymous": false,
      "inputs": [
        {
          "indexed": true,
          "internalType": "uint256",
          "name": "percent",
          "type": "uint256"
        }
      ],
      "name": "UpdatedTax",
      "type": "event"
    },
    {
      "anonymous": false,
      "inputs": [
        {
          "indexed": true,
          "internalType": "address",
          "name": "author",
          "type": "address"
        },
        {
          "indexed": true,
          "internalType": "address",
          "name": "withdrawTo",
          "type": "address"
        },
        {
          "indexed": true,
          "internalType": "string",
          "name": "contentID",
          "type": "string"
        },
        {
          "indexed": false,
          "internalType": "uint256",
          "name": "amount",
          "type": "uint256"
        }
      ],
      "name": "WithdrawContentReward",
      "type": "event"
    },
    {
      "anonymous": false,
      "inputs": [
        {
          "indexed": true,
          "internalType": "address",
          "name": "author",
          "type": "address"
        },
        {
          "indexed": true,
          "internalType": "address",
          "name": "likedContentAuthor",
          "type": "address"
        },
        {
          "indexed": true,
          "internalType": "string",
          "name": "likedContentID",
          "type": "string"
        },
        {
          "indexed": false,
          "internalType": "uint256",
          "name": "amount",
          "type": "uint256"
        }
      ],
      "name": "WithdrawContentRewardToLikeConent",
      "type": "event"
    },
    {
      "inputs": [
        {
          "internalType": "address",
          "name": "addr",
          "type": "address"
        }
      ],
      "name": "addTeamWallet",
      "outputs": [],
      "stateMutability": "nonpayable",
      "type": "function"
    },
    {
      "inputs": [
        {
          "internalType": "address",
          "name": "_owner",
          "type": "address"
        },
        {
          "internalType": "address",
          "name": "_spender",
          "type": "address"
        }
      ],
      "name": "allowance",
      "outputs": [
        {
          "internalType": "uint256",
          "name": "remaining",
          "type": "uint256"
        }
      ],
      "stateMutability": "view",
      "type": "function",
      "constant": true
    },
    {
      "inputs": [
        {
          "internalType": "address",
          "name": "_spender",
          "type": "address"
        },
        {
          "internalType": "uint256",
          "name": "_value",
          "type": "uint256"
        }
      ],
      "name": "approve",
      "outputs": [
        {
          "internalType": "bool",
          "name": "success",
          "type": "bool"
        }
      ],
      "stateMutability": "nonpayable",
      "type": "function"
    },
    {
      "inputs": [
        {
          "internalType": "address",
          "name": "_owner",
          "type": "address"
        }
      ],
      "name": "balanceOf",
      "outputs": [
        {
          "internalType": "uint256",
          "name": "balance",
          "type": "uint256"
        }
      ],
      "stateMutability": "view",
      "type": "function",
      "constant": true
    },
    {
      "inputs": [
        {
          "internalType": "uint256",
          "name": "value",
          "type": "uint256"
        }
      ],
      "name": "burn",
      "outputs": [],
      "stateMutability": "nonpayable",
      "type": "function"
    },
    {
      "inputs": [],
      "name": "burnTaxPercent",
      "outputs": [
        {
          "internalType": "uint256",
          "name": "",
          "type": "uint256"
        }
      ],
      "stateMutability": "view",
      "type": "function",
      "constant": true
    },
    {
      "inputs": [
        {
          "internalType": "address",
          "name": "creator",
          "type": "address"
        },
        {
          "internalType": "string",
          "name": "contentID",
          "type": "string"
        }
      ],
      "name": "contentExist",
      "outputs": [
        {
          "internalType": "bool",
          "name": "",
          "type": "bool"
        }
      ],
      "stateMutability": "view",
      "type": "function",
      "constant": true
    },
    {
      "inputs": [
        {
          "internalType": "string",
          "name": "contentID",
          "type": "string"
        }
      ],
      "name": "createContent",
      "outputs": [],
      "stateMutability": "nonpayable",
      "type": "function"
    },
    {
      "inputs": [
        {
          "internalType": "address",
          "name": "",
          "type": "address"
        },
        {
          "internalType": "string",
          "name": "",
          "type": "string"
        }
      ],
      "name": "creatorsContent",
      "outputs": [
        {
          "internalType": "bool",
          "name": "created",
          "type": "bool"
        },
        {
          "internalType": "uint256",
          "name": "likes",
          "type": "uint256"
        },
        {
          "internalType": "uint256",
          "name": "dislikes",
          "type": "uint256"
        },
        {
          "internalType": "uint256",
          "name": "withdrawn",
          "type": "uint256"
        }
      ],
      "stateMutability": "view",
      "type": "function",
      "constant": true
    },
    {
      "inputs": [
        {
          "internalType": "address",
          "name": "",
          "type": "address"
        },
        {
          "internalType": "uint256",
          "name": "",
          "type": "uint256"
        }
      ],
      "name": "creatorsContentIds",
      "outputs": [
        {
          "internalType": "string",
          "name": "",
          "type": "string"
        }
      ],
      "stateMutability": "view",
      "type": "function",
      "constant": true
    },
    {
      "inputs": [],
      "name": "decimals",
      "outputs": [
        {
          "internalType": "uint8",
          "name": "",
          "type": "uint8"
        }
      ],
      "stateMutability": "view",
      "type": "function",
      "constant": true
    },
    {
      "inputs": [
        {
          "internalType": "address",
          "name": "creator",
          "type": "address"
        },
        {
          "internalType": "string",
          "name": "contentID",
          "type": "string"
        },
        {
          "internalType": "uint256",
          "name": "amount",
          "type": "uint256"
        }
      ],
      "name": "dislikeContent",
      "outputs": [],
      "stateMutability": "nonpayable",
      "type": "function"
    },
    {
      "inputs": [
        {
          "internalType": "address",
          "name": "creator",
          "type": "address"
        },
        {
          "internalType": "string",
          "name": "contentID",
          "type": "string"
        }
      ],
      "name": "getContentFreeEarning",
      "outputs": [
        {
          "internalType": "uint256",
          "name": "",
          "type": "uint256"
        }
      ],
      "stateMutability": "view",
      "type": "function",
      "constant": true
    },
    {
      "inputs": [
        {
          "internalType": "address",
          "name": "creator",
          "type": "address"
        },
        {
          "internalType": "string",
          "name": "contentID",
          "type": "string"
        }
      ],
      "name": "getCreatorContent",
      "outputs": [
        {
          "components": [
            {
              "internalType": "bool",
              "name": "created",
              "type": "bool"
            },
            {
              "internalType": "uint256",
              "name": "likes",
              "type": "uint256"
            },
            {
              "internalType": "uint256",
              "name": "dislikes",
              "type": "uint256"
            },
            {
              "internalType": "uint256",
              "name": "withdrawn",
              "type": "uint256"
            },
            {
              "internalType": "address[]",
              "name": "likers",
              "type": "address[]"
            },
            {
              "internalType": "address[]",
              "name": "dislikers",
              "type": "address[]"
            }
          ],
          "internalType": "struct CryeatorContent.Post",
          "name": "",
          "type": "tuple"
        }
      ],
      "stateMutability": "view",
      "type": "function",
      "constant": true
    },
    {
      "inputs": [
        {
          "internalType": "address",
          "name": "creator",
          "type": "address"
        },
        {
          "internalType": "uint256",
          "name": "contentIndex",
          "type": "uint256"
        }
      ],
      "name": "getCreatorContentByIndex",
      "outputs": [
        {
          "components": [
            {
              "internalType": "bool",
              "name": "created",
              "type": "bool"
            },
            {
              "internalType": "uint256",
              "name": "likes",
              "type": "uint256"
            },
            {
              "internalType": "uint256",
              "name": "dislikes",
              "type": "uint256"
            },
            {
              "internalType": "uint256",
              "name": "withdrawn",
              "type": "uint256"
            },
            {
              "internalType": "address[]",
              "name": "likers",
              "type": "address[]"
            },
            {
              "internalType": "address[]",
              "name": "dislikers",
              "type": "address[]"
            }
          ],
          "internalType": "struct CryeatorContent.Post",
          "name": "",
          "type": "tuple"
        }
      ],
      "stateMutability": "view",
      "type": "function",
      "constant": true
    },
    {
      "inputs": [
        {
          "internalType": "address",
          "name": "creator",
          "type": "address"
        }
      ],
      "name": "getCreatorContentCounts",
      "outputs": [
        {
          "internalType": "uint256",
          "name": "",
          "type": "uint256"
        }
      ],
      "stateMutability": "view",
      "type": "function",
      "constant": true
    },
    {
      "inputs": [
        {
          "internalType": "address",
          "name": "addr",
          "type": "address"
        }
      ],
      "name": "isTeam",
      "outputs": [
        {
          "internalType": "bool",
          "name": "",
          "type": "bool"
        }
      ],
      "stateMutability": "view",
      "type": "function",
      "constant": true
    },
    {
      "inputs": [
        {
          "internalType": "address",
          "name": "creator",
          "type": "address"
        },
        {
          "internalType": "string",
          "name": "contentID",
          "type": "string"
        },
        {
          "internalType": "uint256",
          "name": "amount",
          "type": "uint256"
        }
      ],
      "name": "likeContent",
      "outputs": [],
      "stateMutability": "nonpayable",
      "type": "function"
    },
    {
      "inputs": [
        {
          "internalType": "address",
          "name": "likeContentAuthor",
          "type": "address"
        },
        {
          "internalType": "string",
          "name": "contentID",
          "type": "string"
        },
        {
          "internalType": "string",
          "name": "likeContentID",
          "type": "string"
        }
      ],
      "name": "likeContentWithAllContentEarning",
      "outputs": [],
      "stateMutability": "nonpayable",
      "type": "function"
    },
    {
      "inputs": [],
      "name": "name",
      "outputs": [
        {
          "internalType": "string",
          "name": "",
          "type": "string"
        }
      ],
      "stateMutability": "view",
      "type": "function",
      "constant": true
    },
    {
      "inputs": [],
      "name": "owner",
      "outputs": [
        {
          "internalType": "address",
          "name": "",
          "type": "address"
        }
      ],
      "stateMutability": "view",
      "type": "function",
      "constant": true
    },
    {
      "inputs": [
        {
          "internalType": "address",
          "name": "addr",
          "type": "address"
        }
      ],
      "name": "removeTeamWallet",
      "outputs": [],
      "stateMutability": "nonpayable",
      "type": "function"
    },
    {
      "inputs": [],
      "name": "symbol",
      "outputs": [
        {
          "internalType": "string",
          "name": "",
          "type": "string"
        }
      ],
      "stateMutability": "view",
      "type": "function",
      "constant": true
    },
    {
      "inputs": [],
      "name": "taxPercent",
      "outputs": [
        {
          "internalType": "uint256",
          "name": "",
          "type": "uint256"
        }
      ],
      "stateMutability": "view",
      "type": "function",
      "constant": true
    },
    {
      "inputs": [],
      "name": "taxStatus",
      "outputs": [
        {
          "internalType": "bool",
          "name": "",
          "type": "bool"
        }
      ],
      "stateMutability": "view",
      "type": "function",
      "constant": true
    },
    {
      "inputs": [],
      "name": "taxWallet",
      "outputs": [
        {
          "internalType": "address",
          "name": "",
          "type": "address"
        }
      ],
      "stateMutability": "view",
      "type": "function",
      "constant": true
    },
    {
      "inputs": [],
      "name": "toggleTaxStatus",
      "outputs": [],
      "stateMutability": "nonpayable",
      "type": "function"
    },
    {
      "inputs": [],
      "name": "totalSupply",
      "outputs": [
        {
          "internalType": "uint256",
          "name": "",
          "type": "uint256"
        }
      ],
      "stateMutability": "view",
      "type": "function",
      "constant": true
    },
    {
      "inputs": [
        {
          "internalType": "address",
          "name": "_to",
          "type": "address"
        },
        {
          "internalType": "uint256",
          "name": "_value",
          "type": "uint256"
        }
      ],
      "name": "transfer",
      "outputs": [
        {
          "internalType": "bool",
          "name": "success",
          "type": "bool"
        }
      ],
      "stateMutability": "nonpayable",
      "type": "function"
    },
    {
      "inputs": [
        {
          "internalType": "address",
          "name": "_from",
          "type": "address"
        },
        {
          "internalType": "address",
          "name": "_to",
          "type": "address"
        },
        {
          "internalType": "uint256",
          "name": "_value",
          "type": "uint256"
        }
      ],
      "name": "transferFrom",
      "outputs": [
        {
          "internalType": "bool",
          "name": "success",
          "type": "bool"
        }
      ],
      "stateMutability": "nonpayable",
      "type": "function"
    },
    {
      "inputs": [
        {
          "internalType": "uint256",
          "name": "percent",
          "type": "uint256"
        }
      ],
      "name": "updateBurnTaxPercent",
      "outputs": [],
      "stateMutability": "nonpayable",
      "type": "function"
    },
    {
      "inputs": [
        {
          "internalType": "uint256",
          "name": "percent",
          "type": "uint256"
        }
      ],
      "name": "updateTax",
      "outputs": [],
      "stateMutability": "nonpayable",
      "type": "function"
    },
    {
      "inputs": [
        {
          "internalType": "string",
          "name": "contentID",
          "type": "string"
        },
        {
          "internalType": "address",
          "name": "withdrawTo",
          "type": "address"
        }
      ],
      "name": "withdrawAllContentEarning",
      "outputs": [],
      "stateMutability": "nonpayable",
      "type": "function"
    },
    {
      "inputs": [
        {
          "internalType": "string",
          "name": "contentID",
          "type": "string"
        },
        {
          "internalType": "uint256",
          "name": "amount",
          "type": "uint256"
        },
        {
          "internalType": "address",
          "name": "withdrawTo",
          "type": "address"
        }
      ],
      "name": "withdrawContentEarning",
      "outputs": [],
      "stateMutability": "nonpayable",
      "type": "function"
    }
  ],
  "bytecode": "0x60806040526040518060400160405280600881526020017f4372796561746f720000000000000000000000000000000000000000000000008152506008908051906020019062000051929190620003dc565b506012600960006101000a81548160ff021916908360ff1602179055506040518060400160405280600481526020017f4352595400000000000000000000000000000000000000000000000000000000815250600a9080519060200190620000bb929190620003dc565b50348015620000c957600080fd5b506107cf600060016101000a81548173ffffffffffffffffffffffffffffffffffffffff021916908373ffffffffffffffffffffffffffffffffffffffff16021790555033600360006101000a81548173ffffffffffffffffffffffffffffffffffffffff021916908373ffffffffffffffffffffffffffffffffffffffff1602179055506006600181905550601460028190555062000191600360009054906101000a900473ffffffffffffffffffffffffffffffffffffffff16620001e560201b60201c565b620001df620001a56200029f60201b60201c565b600960009054906101000a900460ff16600a620001c3919062000626565b620186a0620001d3919062000677565b620002a760201b60201c565b620007c8565b620001f6816200038660201b60201c565b156200020157600080fd5b6001600460008373ffffffffffffffffffffffffffffffffffffffff1673ffffffffffffffffffffffffffffffffffffffff16815260200190815260200160002060006101000a81548160ff0219169083151502179055508073ffffffffffffffffffffffffffffffffffffffff167f8ba342ea87fd671d1f8ba6c775202ebb84506d6e90c0a968634e966ad9e587f360405160405180910390a250565b600033905090565b80600560008473ffffffffffffffffffffffffffffffffffffffff1673ffffffffffffffffffffffffffffffffffffffff1681526020019081526020016000206000828254620002f89190620006d8565b925050819055508060076000828254620003139190620006d8565b925050819055508173ffffffffffffffffffffffffffffffffffffffff16600073ffffffffffffffffffffffffffffffffffffffff167fddf252ad1be2c89b69c2b068fc378daa952ba7f163c4a11628f55a4df523b3ef836040516200037a919062000746565b60405180910390a35050565b6000600460008373ffffffffffffffffffffffffffffffffffffffff1673ffffffffffffffffffffffffffffffffffffffff16815260200190815260200160002060009054906101000a900460ff169050919050565b828054620003ea9062000792565b90600052602060002090601f0160209004810192826200040e57600085556200045a565b82601f106200042957805160ff19168380011785556200045a565b828001600101855582156200045a579182015b82811115620004595782518255916020019190600101906200043c565b5b5090506200046991906200046d565b5090565b5b80821115620004885760008160009055506001016200046e565b5090565b7f4e487b7100000000000000000000000000000000000000000000000000000000600052601160045260246000fd5b60008160011c9050919050565b6000808291508390505b60018511156200051a57808604811115620004f257620004f16200048c565b5b6001851615620005025780820291505b80810290506200051285620004bb565b9450620004d2565b94509492505050565b60008262000535576001905062000608565b8162000545576000905062000608565b81600181146200055e576002811462000569576200059f565b600191505062000608565b60ff8411156200057e576200057d6200048c565b5b8360020a9150848211156200059857620005976200048c565b5b5062000608565b5060208310610133831016604e8410600b8410161715620005d95782820a905083811115620005d357620005d26200048c565b5b62000608565b620005e88484846001620004c8565b925090508184048111156200060257620006016200048c565b5b81810290505b9392505050565b6000819050919050565b600060ff82169050919050565b600062000633826200060f565b9150620006408362000619565b92506200066f7fffffffffffffffffffffffffffffffffffffffffffffffffffffffffffffffff848462000523565b905092915050565b600062000684826200060f565b915062000691836200060f565b9250817fffffffffffffffffffffffffffffffffffffffffffffffffffffffffffffffff0483118215151615620006cd57620006cc6200048c565b5b828202905092915050565b6000620006e5826200060f565b9150620006f2836200060f565b9250827fffffffffffffffffffffffffffffffffffffffffffffffffffffffffffffffff038211156200072a57620007296200048c565b5b828201905092915050565b62000740816200060f565b82525050565b60006020820190506200075d600083018462000735565b92915050565b7f4e487b7100000000000000000000000000000000000000000000000000000000600052602260045260246000fd5b60006002820490506001821680620007ab57607f821691505b60208210811415620007c257620007c162000763565b5b50919050565b6132c280620007d86000396000f3fe608060405234801561001057600080fd5b50600436106102065760003560e01c80637541f41c1161011a578063a9059cbb116100ad578063cf2256481161007c578063cf22564814610614578063dd62ed3e14610630578063e4b3169b14610660578063e5a1146214610690578063ec118713146106c057610206565b8063a9059cbb1461058e578063b5392ba4146105be578063ca7e12af146105da578063cca0feb6146105f857610206565b80638ee17d27116100e95780638ee17d271461050557806395d89b4114610538578063a3714a5b14610556578063a6070e631461057257610206565b80637541f41c1461049157806388c7c85c146104af578063899df3c2146104cb5780638da5cb5b146104e757610206565b8063313ce5671161019d57806342966c681161016c57806342966c68146103f1578063497cc8411461040d57806370a0823114610429578063713d379814610459578063731b96d11461047557610206565b8063313ce5671461034357806331a65c491461036157806339d57c11146103915780633c406cfb146103c157610206565b806323b872dd116101d957806323b872dd1461029557806324851914146102c557806327c82a00146102f55780632dc0562d1461032557610206565b806306fdde031461020b578063095ea7b31461022957806318160ddd1461025957806323a38a3814610277575b600080fd5b6102136106ca565b604051610220919061265c565b60405180910390f35b610243600480360381019061023e9190612726565b610758565b6040516102509190612781565b60405180910390f35b610261610856565b60405161026e91906127ab565b60405180910390f35b61027f61085c565b60405161028c9190612781565b60405180910390f35b6102af60048036038101906102aa91906127c6565b61086d565b6040516102bc9190612781565b60405180910390f35b6102df60048036038101906102da9190612819565b610976565b6040516102ec9190612781565b60405180910390f35b61030f600480360381019061030a9190612726565b6109cc565b60405161031c91906129b2565b60405180910390f35b61032d610ae4565b60405161033a91906129e3565b60405180910390f35b61034b610b0a565b6040516103589190612a1a565b60405180910390f35b61037b60048036038101906103769190612b6a565b610b1d565b6040516103889190612781565b60405180910390f35b6103ab60048036038101906103a69190612b6a565b610b93565b6040516103b891906129b2565b60405180910390f35b6103db60048036038101906103d69190612819565b610d9f565b6040516103e891906127ab565b60405180910390f35b61040b60048036038101906104069190612bc6565b610deb565b005b61042760048036038101906104229190612bf3565b610e05565b005b610443600480360381019061043e9190612819565b610f98565b60405161045091906127ab565b60405180910390f35b610473600480360381019061046e9190612c3c565b610fe1565b005b61048f600480360381019061048a9190612cc7565b611314565b005b610499611325565b6040516104a691906127ab565b60405180910390f35b6104c960048036038101906104c49190612819565b61132b565b005b6104e560048036038101906104e09190612d36565b6113dc565b005b6104ef6113f4565b6040516104fc91906129e3565b60405180910390f35b61051f600480360381019061051a9190612b6a565b61141a565b60405161052f9493929190612d92565b60405180910390f35b61054061147a565b60405161054d919061265c565b60405180910390f35b610570600480360381019061056b9190612819565b611508565b005b61058c60048036038101906105879190612cc7565b6115b8565b005b6105a860048036038101906105a39190612726565b6115c9565b6040516105b59190612781565b60405180910390f35b6105d860048036038101906105d39190612bc6565b6115e7565b005b6105e2611628565b6040516105ef91906127ab565b60405180910390f35b610612600480360381019061060d9190612bc6565b61162e565b005b61062e60048036038101906106299190612dd7565b611665565b005b61064a60048036038101906106459190612e46565b61167c565b60405161065791906127ab565b60405180910390f35b61067a60048036038101906106759190612b6a565b611703565b60405161068791906127ab565b60405180910390f35b6106aa60048036038101906106a59190612726565b61173e565b6040516106b7919061265c565b60405180910390f35b6106c86117f7565b005b600880546106d790612eb5565b80601f016020809104026020016040519081016040528092919081815260200182805461070390612eb5565b80156107505780601f1061072557610100808354040283529160200191610750565b820191906000526020600020905b81548152906001019060200180831161073357829003601f168201915b505050505081565b6000806107636118f4565b905082600660008373ffffffffffffffffffffffffffffffffffffffff1673ffffffffffffffffffffffffffffffffffffffff16815260200190815260200160002060008673ffffffffffffffffffffffffffffffffffffffff1673ffffffffffffffffffffffffffffffffffffffff168152602001908152602001600020819055508373ffffffffffffffffffffffffffffffffffffffff168173ffffffffffffffffffffffffffffffffffffffff167f8c5be1e5ebec7d5bd14f71427d1e84f3dd0314c0f7b2291e5b200ac8c7c3b9258560405161084391906127ab565b60405180910390a3600191505092915050565b60075481565b60008054906101000a900460ff1681565b6000806108786118f4565b90506000610886868361167c565b9050838110156108cb576040517f08c379a00000000000000000000000000000000000000000000000000000000081526004016108c290612f33565b60405180910390fd5b83600660008873ffffffffffffffffffffffffffffffffffffffff1673ffffffffffffffffffffffffffffffffffffffff16815260200190815260200160002060008473ffffffffffffffffffffffffffffffffffffffff1673ffffffffffffffffffffffffffffffffffffffff16815260200190815260200160002060008282546109579190612f82565b925050819055506109698686866118fc565b6001925050509392505050565b6000600460008373ffffffffffffffffffffffffffffffffffffffff1673ffffffffffffffffffffffffffffffffffffffff16815260200190815260200160002060009054906101000a900460ff169050919050565b6109d46124e8565b816109de84610d9f565b10156109e957600080fd5b6000600c60008573ffffffffffffffffffffffffffffffffffffffff1673ffffffffffffffffffffffffffffffffffffffff1681526020019081526020016000208381548110610a3c57610a3b612fb6565b5b906000526020600020018054610a5190612eb5565b80601f0160208091040260200160405190810160405280929190818152602001828054610a7d90612eb5565b8015610aca5780601f10610a9f57610100808354040283529160200191610aca565b820191906000526020600020905b815481529060010190602001808311610aad57829003601f168201915b50505050509050610adb8482610b93565b91505092915050565b600060019054906101000a900473ffffffffffffffffffffffffffffffffffffffff1681565b600960009054906101000a900460ff1681565b6000600b60008473ffffffffffffffffffffffffffffffffffffffff1673ffffffffffffffffffffffffffffffffffffffff16815260200190815260200160002082604051610b6c9190613021565b908152602001604051809103902060000160009054906101000a900460ff16905092915050565b610b9b6124e8565b6000600b60008573ffffffffffffffffffffffffffffffffffffffff1673ffffffffffffffffffffffffffffffffffffffff16815260200190815260200160002083604051610bea9190613021565b90815260200160405180910390206040518060c00160405290816000820160009054906101000a900460ff1615151515815260200160018201548152602001600282015481526020016003820154815260200160048201805480602002602001604051908101604052809291908181526020018280548015610cc157602002820191906000526020600020905b8160009054906101000a900473ffffffffffffffffffffffffffffffffffffffff1673ffffffffffffffffffffffffffffffffffffffff1681526020019060010190808311610c77575b5050505050815260200160058201805480602002602001604051908101604052809291908181526020018280548015610d4f57602002820191906000526020600020905b8160009054906101000a900473ffffffffffffffffffffffffffffffffffffffff1673ffffffffffffffffffffffffffffffffffffffff1681526020019060010190808311610d05575b50505050508152505090508060000151610d95576040517faf92380800000000000000000000000000000000000000000000000000000000815260040160405180910390fd5b8091505092915050565b6000600c60008373ffffffffffffffffffffffffffffffffffffffff1673ffffffffffffffffffffffffffffffffffffffff168152602001908152602001600020805490509050919050565b6000610df56118f4565b9050610e018183611bf1565b5050565b6000339050610e148183610b1d565b15610e4b576040517f8cd6511700000000000000000000000000000000000000000000000000000000815260040160405180910390fd5b6001600b60008373ffffffffffffffffffffffffffffffffffffffff1673ffffffffffffffffffffffffffffffffffffffff16815260200190815260200160002083604051610e9a9190613021565b908152602001604051809103902060000160006101000a81548160ff021916908315150217905550600c60008273ffffffffffffffffffffffffffffffffffffffff1673ffffffffffffffffffffffffffffffffffffffff16815260200190815260200160002082908060018154018082558091505060019003906000526020600020016000909190919091509080519060200190610f3a929190612520565b5081604051610f499190613021565b60405180910390208173ffffffffffffffffffffffffffffffffffffffff167f60736d2f0f507cb5c4fc617b7ad230623c679de87f927d332d997dec787a3bd960405160405180910390a35050565b6000600560008373ffffffffffffffffffffffffffffffffffffffff1673ffffffffffffffffffffffffffffffffffffffff168152602001908152602001600020549050919050565b60003390506000610ff28285611703565b90506000811161102e576040517fad22b17900000000000000000000000000000000000000000000000000000000815260040160405180910390fd5b6110388584610b1d565b61106e576040517faf92380800000000000000000000000000000000000000000000000000000000815260040160405180910390fd5b80600b60008473ffffffffffffffffffffffffffffffffffffffff1673ffffffffffffffffffffffffffffffffffffffff168152602001908152602001600020856040516110bc9190613021565b908152602001604051809103902060030160008282546110dc9190613038565b9250508190555080600b60008773ffffffffffffffffffffffffffffffffffffffff1673ffffffffffffffffffffffffffffffffffffffff168152602001908152602001600020846040516111319190613021565b908152602001604051809103902060010160008282546111519190613038565b92505081905550600b60008673ffffffffffffffffffffffffffffffffffffffff1673ffffffffffffffffffffffffffffffffffffffff168152602001908152602001600020836040516111a59190613021565b9081526020016040518091039020600401829080600181540180825580915050600190039060005260206000200160009091909190916101000a81548173ffffffffffffffffffffffffffffffffffffffff021916908373ffffffffffffffffffffffffffffffffffffffff160217905550826040516112259190613021565b60405180910390208573ffffffffffffffffffffffffffffffffffffffff168373ffffffffffffffffffffffffffffffffffffffff167f3b780a7ec35769595006b30c5151db712da3d96b16556628dc6749588668255d8460405161128a91906127ab565b60405180910390a4826040516112a09190613021565b60405180910390208273ffffffffffffffffffffffffffffffffffffffff168673ffffffffffffffffffffffffffffffffffffffff167f068dd9bd3df46cf868a94bd8249b00461829edabd1101963746f95f9f9a9e30e8460405161130591906127ab565b60405180910390a45050505050565b61132033848484611d63565b505050565b60015481565b61133481610976565b1561133e57600080fd5b6001600460008373ffffffffffffffffffffffffffffffffffffffff1673ffffffffffffffffffffffffffffffffffffffff16815260200190815260200160002060006101000a81548160ff0219169083151502179055508073ffffffffffffffffffffffffffffffffffffffff167f8ba342ea87fd671d1f8ba6c775202ebb84506d6e90c0a968634e966ad9e587f360405160405180910390a250565b6113f0826113ea3385611703565b83611665565b5050565b600360009054906101000a900473ffffffffffffffffffffffffffffffffffffffff1681565b600b60205281600052604060002081805160208101820180518482526020830160208501208183528095505050505050600091509150508060000160009054906101000a900460ff16908060010154908060020154908060030154905084565b600a805461148790612eb5565b80601f01602080910402602001604051908101604052809291908181526020018280546114b390612eb5565b80156115005780601f106114d557610100808354040283529160200191611500565b820191906000526020600020905b8154815290600101906020018083116114e357829003601f168201915b505050505081565b61151181610976565b61151a57600080fd5b6000600460008373ffffffffffffffffffffffffffffffffffffffff1673ffffffffffffffffffffffffffffffffffffffff16815260200190815260200160002060006101000a81548160ff0219169083151502179055508073ffffffffffffffffffffffffffffffffffffffff167f5c29245bbd301fef23b6f829c9f626a9fbfd59981ae243f9dc88ef6ce23c8b6e60405160405180910390a250565b6115c433848484611f92565b505050565b60006115dd6115d66118f4565b84846118fc565b6001905092915050565b806002819055507feb04c8f03412f2d5ea087f5ebc4195a82bab5143644e1a7ef95435e9ad5a5a028160405161161d91906127ab565b60405180910390a150565b60025481565b80600181905550807f5582bb85c6567acbabcb3b1166d082a7a8215af3f33d510a94139c82b8d4904360405160405180910390a250565b6000339050611676818585856121b7565b50505050565b6000600660008473ffffffffffffffffffffffffffffffffffffffff1673ffffffffffffffffffffffffffffffffffffffff16815260200190815260200160002060008373ffffffffffffffffffffffffffffffffffffffff1673ffffffffffffffffffffffffffffffffffffffff16815260200190815260200160002054905092915050565b6000806117108484610b93565b9050806060015181604001516117269190613038565b81602001516117359190612f82565b91505092915050565b600c602052816000526040600020818154811061175a57600080fd5b9060005260206000200160009150915050805461177690612eb5565b80601f01602080910402602001604051908101604052809291908181526020018280546117a290612eb5565b80156117ef5780601f106117c4576101008083540402835291602001916117ef565b820191906000526020600020905b8154815290600101906020018083116117d257829003601f168201915b505050505081565b600360009054906101000a900473ffffffffffffffffffffffffffffffffffffffff1673ffffffffffffffffffffffffffffffffffffffff163373ffffffffffffffffffffffffffffffffffffffff1614611887576040517f08c379a000000000000000000000000000000000000000000000000000000000815260040161187e906130da565b60405180910390fd5b60008054906101000a900460ff16156000806101000a81548160ff0219169083151502179055507fce5b487ee3ab4cdb5fece723488026388ad019d4c0de144ffe2001d5d0f2284760008054906101000a900460ff166040516118ea9190612781565b60405180910390a1565b600033905090565b600073ffffffffffffffffffffffffffffffffffffffff168373ffffffffffffffffffffffffffffffffffffffff16141580156119665750600073ffffffffffffffffffffffffffffffffffffffff168273ffffffffffffffffffffffffffffffffffffffff1614155b6119a5576040517f08c379a000000000000000000000000000000000000000000000000000000000815260040161199c90613146565b60405180910390fd5b806119af84610f98565b10156119f0576040517f08c379a00000000000000000000000000000000000000000000000000000000081526004016119e7906131b2565b60405180910390fd5b600081118015611a6457503073ffffffffffffffffffffffffffffffffffffffff168373ffffffffffffffffffffffffffffffffffffffff1614158015611a6357508173ffffffffffffffffffffffffffffffffffffffff163073ffffffffffffffffffffffffffffffffffffffff1614155b5b8015611a9e575060008054906101000a900460ff168015611a8b5750611a8983610976565b155b8015611a9d5750611a9b82610976565b155b5b15611adb576000606460015483611ab591906131d2565b611abf919061325b565b90508082611acd9190612f82565b9150611ad98482612335565b505b80600560008473ffffffffffffffffffffffffffffffffffffffff1673ffffffffffffffffffffffffffffffffffffffff1681526020019081526020016000206000828254611b2a9190613038565b9250508190555080600560008573ffffffffffffffffffffffffffffffffffffffff1673ffffffffffffffffffffffffffffffffffffffff1681526020019081526020016000206000828254611b809190612f82565b925050819055508173ffffffffffffffffffffffffffffffffffffffff168373ffffffffffffffffffffffffffffffffffffffff167fddf252ad1be2c89b69c2b068fc378daa952ba7f163c4a11628f55a4df523b3ef83604051611be491906127ab565b60405180910390a3505050565b80611bfb83610f98565b1015611c3c576040517f08c379a0000000000000000000000000000000000000000000000000000000008152600401611c33906131b2565b60405180910390fd5b80600560008473ffffffffffffffffffffffffffffffffffffffff1673ffffffffffffffffffffffffffffffffffffffff1681526020019081526020016000206000828254611c8b9190612f82565b925050819055508060076000828254611ca49190612f82565b92505081905550600073ffffffffffffffffffffffffffffffffffffffff168273ffffffffffffffffffffffffffffffffffffffff167fddf252ad1be2c89b69c2b068fc378daa952ba7f163c4a11628f55a4df523b3ef83604051611d0991906127ab565b60405180910390a38173ffffffffffffffffffffffffffffffffffffffff167fcc16f5dbb4873280815c1ee09dbd06736cffcc184412cf7a71a0fdb75d397ca582604051611d5791906127ab565b60405180910390a25050565b611d6d8383610b1d565b611da3576040517faf92380800000000000000000000000000000000000000000000000000000000815260040160405180910390fd5b611dad8482611bf1565b6000611db98484611703565b9050818110611ddc57611ddb3083831115611dd45783611dd6565b825b611bf1565b5b81600b60008673ffffffffffffffffffffffffffffffffffffffff1673ffffffffffffffffffffffffffffffffffffffff16815260200190815260200160002084604051611e2a9190613021565b90815260200160405180910390206002016000828254611e4a9190613038565b92505081905550600b60008573ffffffffffffffffffffffffffffffffffffffff1673ffffffffffffffffffffffffffffffffffffffff16815260200190815260200160002083604051611e9e9190613021565b9081526020016040518091039020600501859080600181540180825580915050600190039060005260206000200160009091909190916101000a81548173ffffffffffffffffffffffffffffffffffffffff021916908373ffffffffffffffffffffffffffffffffffffffff16021790555082604051611f1e9190613021565b60405180910390208473ffffffffffffffffffffffffffffffffffffffff168673ffffffffffffffffffffffffffffffffffffffff167f2d86a32b3d075e2ef86caf27bd64cf1e31a4b2a12556bf46d1916bb77fa54d4185604051611f8391906127ab565b60405180910390a45050505050565b6000611f9e8484610b93565b9050611fab8530846118fc565b600082611fb88686611703565b611fc29190613038565b9050600082602001518360400151611fda9190612f82565b90506000811115611fff57611ffe3083831015611ff75782611ff9565b835b611bf1565b5b83600b60008873ffffffffffffffffffffffffffffffffffffffff1673ffffffffffffffffffffffffffffffffffffffff1681526020019081526020016000208660405161204d9190613021565b9081526020016040518091039020600101600082825461206d9190613038565b92505081905550600b60008773ffffffffffffffffffffffffffffffffffffffff1673ffffffffffffffffffffffffffffffffffffffff168152602001908152602001600020856040516120c19190613021565b9081526020016040518091039020600401879080600181540180825580915050600190039060005260206000200160009091909190916101000a81548173ffffffffffffffffffffffffffffffffffffffff021916908373ffffffffffffffffffffffffffffffffffffffff160217905550846040516121419190613021565b60405180910390208673ffffffffffffffffffffffffffffffffffffffff163373ffffffffffffffffffffffffffffffffffffffff167f068dd9bd3df46cf868a94bd8249b00461829edabd1101963746f95f9f9a9e30e876040516121a691906127ab565b60405180910390a450505050505050565b600082116121f1576040517fad22b17900000000000000000000000000000000000000000000000000000000815260040160405180910390fd5b6121fb8484611703565b821115612234576040517f7add116400000000000000000000000000000000000000000000000000000000815260040160405180910390fd5b81600b60008673ffffffffffffffffffffffffffffffffffffffff1673ffffffffffffffffffffffffffffffffffffffff168152602001908152602001600020846040516122829190613021565b908152602001604051809103902060030160008282546122a29190613038565b925050819055506122b43085846118fc565b826040516122c29190613021565b60405180910390208173ffffffffffffffffffffffffffffffffffffffff168573ffffffffffffffffffffffffffffffffffffffff167f786961de119a67e89617ccb3192a5b5992e62b1a148a05dfe57cc8eee824dd428560405161232791906127ab565b60405180910390a450505050565b600060646002548361234791906131d2565b612351919061325b565b9050808261235f9190612f82565b915061236b8382611bf1565b8161237584610f98565b61237f9190612f82565b600560008573ffffffffffffffffffffffffffffffffffffffff1673ffffffffffffffffffffffffffffffffffffffff16815260200190815260200160002081905550816123ee600060019054906101000a900473ffffffffffffffffffffffffffffffffffffffff16610f98565b6123f89190613038565b600560008060019054906101000a900473ffffffffffffffffffffffffffffffffffffffff1673ffffffffffffffffffffffffffffffffffffffff1673ffffffffffffffffffffffffffffffffffffffff16815260200190815260200160002081905550600060019054906101000a900473ffffffffffffffffffffffffffffffffffffffff1673ffffffffffffffffffffffffffffffffffffffff168373ffffffffffffffffffffffffffffffffffffffff167fddf252ad1be2c89b69c2b068fc378daa952ba7f163c4a11628f55a4df523b3ef846040516124db91906127ab565b60405180910390a3505050565b6040518060c0016040528060001515815260200160008152602001600081526020016000815260200160608152602001606081525090565b82805461252c90612eb5565b90600052602060002090601f01602090048101928261254e5760008555612595565b82601f1061256757805160ff1916838001178555612595565b82800160010185558215612595579182015b82811115612594578251825591602001919060010190612579565b5b5090506125a291906125a6565b5090565b5b808211156125bf5760008160009055506001016125a7565b5090565b600081519050919050565b600082825260208201905092915050565b60005b838110156125fd5780820151818401526020810190506125e2565b8381111561260c576000848401525b50505050565b6000601f19601f8301169050919050565b600061262e826125c3565b61263881856125ce565b93506126488185602086016125df565b61265181612612565b840191505092915050565b600060208201905081810360008301526126768184612623565b905092915050565b6000604051905090565b600080fd5b600080fd5b600073ffffffffffffffffffffffffffffffffffffffff82169050919050565b60006126bd82612692565b9050919050565b6126cd816126b2565b81146126d857600080fd5b50565b6000813590506126ea816126c4565b92915050565b6000819050919050565b612703816126f0565b811461270e57600080fd5b50565b600081359050612720816126fa565b92915050565b6000806040838503121561273d5761273c612688565b5b600061274b858286016126db565b925050602061275c85828601612711565b9150509250929050565b60008115159050919050565b61277b81612766565b82525050565b60006020820190506127966000830184612772565b92915050565b6127a5816126f0565b82525050565b60006020820190506127c0600083018461279c565b92915050565b6000806000606084860312156127df576127de612688565b5b60006127ed868287016126db565b93505060206127fe868287016126db565b925050604061280f86828701612711565b9150509250925092565b60006020828403121561282f5761282e612688565b5b600061283d848285016126db565b91505092915050565b61284f81612766565b82525050565b61285e816126f0565b82525050565b600081519050919050565b600082825260208201905092915050565b6000819050602082019050919050565b612899816126b2565b82525050565b60006128ab8383612890565b60208301905092915050565b6000602082019050919050565b60006128cf82612864565b6128d9818561286f565b93506128e483612880565b8060005b838110156129155781516128fc888261289f565b9750612907836128b7565b9250506001810190506128e8565b5085935050505092915050565b600060c08301600083015161293a6000860182612846565b50602083015161294d6020860182612855565b5060408301516129606040860182612855565b5060608301516129736060860182612855565b506080830151848203608086015261298b82826128c4565b91505060a083015184820360a08601526129a582826128c4565b9150508091505092915050565b600060208201905081810360008301526129cc8184612922565b905092915050565b6129dd816126b2565b82525050565b60006020820190506129f860008301846129d4565b92915050565b600060ff82169050919050565b612a14816129fe565b82525050565b6000602082019050612a2f6000830184612a0b565b92915050565b600080fd5b600080fd5b7f4e487b7100000000000000000000000000000000000000000000000000000000600052604160045260246000fd5b612a7782612612565b810181811067ffffffffffffffff82111715612a9657612a95612a3f565b5b80604052505050565b6000612aa961267e565b9050612ab58282612a6e565b919050565b600067ffffffffffffffff821115612ad557612ad4612a3f565b5b612ade82612612565b9050602081019050919050565b82818337600083830152505050565b6000612b0d612b0884612aba565b612a9f565b905082815260208101848484011115612b2957612b28612a3a565b5b612b34848285612aeb565b509392505050565b600082601f830112612b5157612b50612a35565b5b8135612b61848260208601612afa565b91505092915050565b60008060408385031215612b8157612b80612688565b5b6000612b8f858286016126db565b925050602083013567ffffffffffffffff811115612bb057612baf61268d565b5b612bbc85828601612b3c565b9150509250929050565b600060208284031215612bdc57612bdb612688565b5b6000612bea84828501612711565b91505092915050565b600060208284031215612c0957612c08612688565b5b600082013567ffffffffffffffff811115612c2757612c2661268d565b5b612c3384828501612b3c565b91505092915050565b600080600060608486031215612c5557612c54612688565b5b6000612c63868287016126db565b935050602084013567ffffffffffffffff811115612c8457612c8361268d565b5b612c9086828701612b3c565b925050604084013567ffffffffffffffff811115612cb157612cb061268d565b5b612cbd86828701612b3c565b9150509250925092565b600080600060608486031215612ce057612cdf612688565b5b6000612cee868287016126db565b935050602084013567ffffffffffffffff811115612d0f57612d0e61268d565b5b612d1b86828701612b3c565b9250506040612d2c86828701612711565b9150509250925092565b60008060408385031215612d4d57612d4c612688565b5b600083013567ffffffffffffffff811115612d6b57612d6a61268d565b5b612d7785828601612b3c565b9250506020612d88858286016126db565b9150509250929050565b6000608082019050612da76000830187612772565b612db4602083018661279c565b612dc1604083018561279c565b612dce606083018461279c565b95945050505050565b600080600060608486031215612df057612def612688565b5b600084013567ffffffffffffffff811115612e0e57612e0d61268d565b5b612e1a86828701612b3c565b9350506020612e2b86828701612711565b9250506040612e3c868287016126db565b9150509250925092565b60008060408385031215612e5d57612e5c612688565b5b6000612e6b858286016126db565b9250506020612e7c858286016126db565b9150509250929050565b7f4e487b7100000000000000000000000000000000000000000000000000000000600052602260045260246000fd5b60006002820490506001821680612ecd57607f821691505b60208210811415612ee157612ee0612e86565b5b50919050565b7f45524332303a20616c6c6f77616e636520746f6f206c6f770000000000000000600082015250565b6000612f1d6018836125ce565b9150612f2882612ee7565b602082019050919050565b60006020820190508181036000830152612f4c81612f10565b9050919050565b7f4e487b7100000000000000000000000000000000000000000000000000000000600052601160045260246000fd5b6000612f8d826126f0565b9150612f98836126f0565b925082821015612fab57612faa612f53565b5b828203905092915050565b7f4e487b7100000000000000000000000000000000000000000000000000000000600052603260045260246000fd5b600081905092915050565b6000612ffb826125c3565b6130058185612fe5565b93506130158185602086016125df565b80840191505092915050565b600061302d8284612ff0565b915081905092915050565b6000613043826126f0565b915061304e836126f0565b9250827fffffffffffffffffffffffffffffffffffffffffffffffffffffffffffffffff0382111561308357613082612f53565b5b828201905092915050565b7f216f776e65720000000000000000000000000000000000000000000000000000600082015250565b60006130c46006836125ce565b91506130cf8261308e565b602082019050919050565b600060208201905081810360008301526130f3816130b7565b9050919050565b7f4164647265737320756e737570706f7274656400000000000000000000000000600082015250565b60006131306013836125ce565b915061313b826130fa565b602082019050919050565b6000602082019050818103600083015261315f81613123565b9050919050565b7f45524332303a2062616c616e636520746f6f206c6f7700000000000000000000600082015250565b600061319c6016836125ce565b91506131a782613166565b602082019050919050565b600060208201905081810360008301526131cb8161318f565b9050919050565b60006131dd826126f0565b91506131e8836126f0565b9250817fffffffffffffffffffffffffffffffffffffffffffffffffffffffffffffffff048311821515161561322157613220612f53565b5b828202905092915050565b7f4e487b7100000000000000000000000000000000000000000000000000000000600052601260045260246000fd5b6000613266826126f0565b9150613271836126f0565b9250826132815761328061322c565b5b82820490509291505056fea26469706673582212204815e40b07227e2e7eb3acff2d0be413ad34d60592258d472e7855288d43900764736f6c634300080c0033",
  "immutableReferences": {},
  "source": "// SPDX-License-Identifier: MIT\npragma solidity ^0.8.0;\nimport {CryeatorContent} from \"./Cryeator.sol\";\n\n\ncontract CryeatorPackage is CryeatorContent{\n  \n}",
  "sourcePath": "/home/john/Desktop/cryeator.com/contract/contracts/CryeatorPackage.sol",
  "compiler": {
    "name": "solc",
    "version": "0.8.12+commit.f00d7308.Emscripten.clang"
  },
  "schemaVersion": "3.4.6",
  "updatedAt": "2023-10-11T22:05:32.751Z",
  "networkType": "ethereum",
  "devdoc": {
    "kind": "dev",
    "methods": {
      "allowance(address,address)": {
        "params": {
          "_owner": "The address of the account owning tokens",
          "_spender": "The address of the account able to transfer the tokens"
        },
        "returns": {
          "remaining": "Amount of remaining tokens allowed to spent"
        }
      },
      "approve(address,uint256)": {
        "params": {
          "_spender": "The address of the account able to transfer the tokens",
          "_value": "The amount of wei to be approved for transfer"
        },
        "returns": {
          "success": "Whether the approval was successful or not"
        }
      },
      "balanceOf(address)": {
        "params": {
          "_owner": "The address from which the balance will be retrieved"
        },
        "returns": {
          "balance": "the balance"
        }
      },
      "transfer(address,uint256)": {
        "params": {
          "_to": "The address of the recipient",
          "_value": "The amount of token to be transferred"
        },
        "returns": {
          "success": "Whether the transfer was successful or not"
        }
      },
      "transferFrom(address,address,uint256)": {
        "params": {
          "_from": "The address of the sender",
          "_to": "The address of the recipient",
          "_value": "The amount of token to be transferred"
        },
        "returns": {
          "success": "Whether the transfer was successful or not"
        }
      }
    },
    "version": 1
  },
  "userdoc": {
    "kind": "user",
    "methods": {
      "approve(address,uint256)": {
        "notice": "`msg.sender` approves `_addr` to spend `_value` tokens"
      },
      "transfer(address,uint256)": {
        "notice": "send `_value` token to `_to` from `msg.sender`"
      },
      "transferFrom(address,address,uint256)": {
        "notice": "send `_value` token to `_to` from `_from` on the condition it is approved by `_from`"
      }
    },
    "version": 1
  }
}