{
  "contractName": "Team",
  "abi": [
    {
      "inputs": [],
      "stateMutability": "nonpayable",
      "type": "constructor"
    },
    {
      "anonymous": false,
      "inputs": [
        {
          "indexed": true,
          "internalType": "address",
          "name": "addr",
          "type": "address"
        }
      ],
      "name": "AddedTeam",
      "type": "event"
    },
    {
      "anonymous": false,
      "inputs": [
        {
          "indexed": true,
          "internalType": "address",
          "name": "addr",
          "type": "address"
        }
      ],
      "name": "RemoveTeam",
      "type": "event"
    },
    {
      "anonymous": false,
      "inputs": [
        {
          "indexed": false,
          "internalType": "bool",
          "name": "status",
          "type": "bool"
        }
      ],
      "name": "ToggleTaxStatus",
      "type": "event"
    },
    {
      "anonymous": false,
      "inputs": [
        {
          "indexed": false,
          "internalType": "uint256",
          "name": "percent",
          "type": "uint256"
        }
      ],
      "name": "UpdatedBurnTaxPercent",
      "type": "event"
    },
    {
      "anonymous": false,
      "inputs": [
        {
          "indexed": true,
          "internalType": "uint256",
          "name": "percent",
          "type": "uint256"
        }
      ],
      "name": "UpdatedTax",
      "type": "event"
    },
    {
      "inputs": [],
      "name": "burnTaxPercent",
      "outputs": [
        {
          "internalType": "uint256",
          "name": "",
          "type": "uint256"
        }
      ],
      "stateMutability": "view",
      "type": "function"
    },
    {
      "inputs": [],
      "name": "owner",
      "outputs": [
        {
          "internalType": "address",
          "name": "",
          "type": "address"
        }
      ],
      "stateMutability": "view",
      "type": "function"
    },
    {
      "inputs": [],
      "name": "taxPercent",
      "outputs": [
        {
          "internalType": "uint256",
          "name": "",
          "type": "uint256"
        }
      ],
      "stateMutability": "view",
      "type": "function"
    },
    {
      "inputs": [],
      "name": "taxStatus",
      "outputs": [
        {
          "internalType": "bool",
          "name": "",
          "type": "bool"
        }
      ],
      "stateMutability": "view",
      "type": "function"
    },
    {
      "inputs": [],
      "name": "taxWallet",
      "outputs": [
        {
          "internalType": "address",
          "name": "",
          "type": "address"
        }
      ],
      "stateMutability": "view",
      "type": "function"
    },
    {
      "inputs": [
        {
          "internalType": "address",
          "name": "addr",
          "type": "address"
        }
      ],
      "name": "isTeam",
      "outputs": [
        {
          "internalType": "bool",
          "name": "",
          "type": "bool"
        }
      ],
      "stateMutability": "view",
      "type": "function"
    },
    {
      "inputs": [
        {
          "internalType": "address",
          "name": "addr",
          "type": "address"
        }
      ],
      "name": "addTeamWallet",
      "outputs": [],
      "stateMutability": "nonpayable",
      "type": "function"
    },
    {
      "inputs": [
        {
          "internalType": "address",
          "name": "addr",
          "type": "address"
        }
      ],
      "name": "removeTeamWallet",
      "outputs": [],
      "stateMutability": "nonpayable",
      "type": "function"
    },
    {
      "inputs": [
        {
          "internalType": "uint256",
          "name": "percent",
          "type": "uint256"
        }
      ],
      "name": "updateBurnTaxPercent",
      "outputs": [],
      "stateMutability": "nonpayable",
      "type": "function"
    },
    {
      "inputs": [
        {
          "internalType": "uint256",
          "name": "percent",
          "type": "uint256"
        }
      ],
      "name": "updateTax",
      "outputs": [],
      "stateMutability": "nonpayable",
      "type": "function"
    },
    {
      "inputs": [],
      "name": "toggleTaxStatus",
      "outputs": [],
      "stateMutability": "nonpayable",
      "type": "function"
    }
  ],
  "bytecode": "0x608060405234801561001057600080fd5b506107cf600060016101000a81548173ffffffffffffffffffffffffffffffffffffffff021916908373ffffffffffffffffffffffffffffffffffffffff16021790555033600360006101000a81548173ffffffffffffffffffffffffffffffffffffffff021916908373ffffffffffffffffffffffffffffffffffffffff160217905550600660018190555060146002819055506100d6600360009054906101000a900473ffffffffffffffffffffffffffffffffffffffff166100db60201b60201c565b6101e8565b6100ea8161019260201b60201c565b156100f457600080fd5b6001600460008373ffffffffffffffffffffffffffffffffffffffff1673ffffffffffffffffffffffffffffffffffffffff16815260200190815260200160002060006101000a81548160ff0219169083151502179055508073ffffffffffffffffffffffffffffffffffffffff167f8ba342ea87fd671d1f8ba6c775202ebb84506d6e90c0a968634e966ad9e587f360405160405180910390a250565b6000600460008373ffffffffffffffffffffffffffffffffffffffff1673ffffffffffffffffffffffffffffffffffffffff16815260200190815260200160002060009054906101000a900460ff169050919050565b6107b3806101f76000396000f3fe608060405234801561001057600080fd5b50600436106100a95760003560e01c80638da5cb5b116100715780638da5cb5b14610154578063a3714a5b14610172578063b5392ba41461018e578063ca7e12af146101aa578063cca0feb6146101c8578063ec118713146101e4576100a9565b806323a38a38146100ae57806324851914146100cc5780632dc0562d146100fc5780637541f41c1461011a57806388c7c85c14610138575b600080fd5b6100b66101ee565b6040516100c3919061059e565b60405180910390f35b6100e660048036038101906100e1919061061c565b6101ff565b6040516100f3919061059e565b60405180910390f35b610104610255565b6040516101119190610658565b60405180910390f35b61012261027b565b60405161012f919061068c565b60405180910390f35b610152600480360381019061014d919061061c565b610281565b005b61015c610332565b6040516101699190610658565b60405180910390f35b61018c6004803603810190610187919061061c565b610358565b005b6101a860048036038101906101a391906106d3565b610408565b005b6101b2610449565b6040516101bf919061068c565b60405180910390f35b6101e260048036038101906101dd91906106d3565b61044f565b005b6101ec610486565b005b60008054906101000a900460ff1681565b6000600460008373ffffffffffffffffffffffffffffffffffffffff1673ffffffffffffffffffffffffffffffffffffffff16815260200190815260200160002060009054906101000a900460ff169050919050565b600060019054906101000a900473ffffffffffffffffffffffffffffffffffffffff1681565b60015481565b61028a816101ff565b1561029457600080fd5b6001600460008373ffffffffffffffffffffffffffffffffffffffff1673ffffffffffffffffffffffffffffffffffffffff16815260200190815260200160002060006101000a81548160ff0219169083151502179055508073ffffffffffffffffffffffffffffffffffffffff167f8ba342ea87fd671d1f8ba6c775202ebb84506d6e90c0a968634e966ad9e587f360405160405180910390a250565b600360009054906101000a900473ffffffffffffffffffffffffffffffffffffffff1681565b610361816101ff565b61036a57600080fd5b6000600460008373ffffffffffffffffffffffffffffffffffffffff1673ffffffffffffffffffffffffffffffffffffffff16815260200190815260200160002060006101000a81548160ff0219169083151502179055508073ffffffffffffffffffffffffffffffffffffffff167f5c29245bbd301fef23b6f829c9f626a9fbfd59981ae243f9dc88ef6ce23c8b6e60405160405180910390a250565b806002819055507feb04c8f03412f2d5ea087f5ebc4195a82bab5143644e1a7ef95435e9ad5a5a028160405161043e919061068c565b60405180910390a150565b60025481565b80600181905550807f5582bb85c6567acbabcb3b1166d082a7a8215af3f33d510a94139c82b8d4904360405160405180910390a250565b600360009054906101000a900473ffffffffffffffffffffffffffffffffffffffff1673ffffffffffffffffffffffffffffffffffffffff163373ffffffffffffffffffffffffffffffffffffffff1614610516576040517f08c379a000000000000000000000000000000000000000000000000000000000815260040161050d9061075d565b60405180910390fd5b60008054906101000a900460ff16156000806101000a81548160ff0219169083151502179055507fce5b487ee3ab4cdb5fece723488026388ad019d4c0de144ffe2001d5d0f2284760008054906101000a900460ff16604051610579919061059e565b60405180910390a1565b60008115159050919050565b61059881610583565b82525050565b60006020820190506105b3600083018461058f565b92915050565b600080fd5b600073ffffffffffffffffffffffffffffffffffffffff82169050919050565b60006105e9826105be565b9050919050565b6105f9816105de565b811461060457600080fd5b50565b600081359050610616816105f0565b92915050565b600060208284031215610632576106316105b9565b5b600061064084828501610607565b91505092915050565b610652816105de565b82525050565b600060208201905061066d6000830184610649565b92915050565b6000819050919050565b61068681610673565b82525050565b60006020820190506106a1600083018461067d565b92915050565b6106b081610673565b81146106bb57600080fd5b50565b6000813590506106cd816106a7565b92915050565b6000602082840312156106e9576106e86105b9565b5b60006106f7848285016106be565b91505092915050565b600082825260208201905092915050565b7f216f776e65720000000000000000000000000000000000000000000000000000600082015250565b6000610747600683610700565b915061075282610711565b602082019050919050565b600060208201905081810360008301526107768161073a565b905091905056fea2646970667358221220e3ac77f37375993945f5dfd0f9da697752697de1f0554aa8a458090639c7dcba64736f6c634300080c0033",
  "immutableReferences": {},
  "source": "// SPDX-License-Identifier: MIT\npragma solidity ^0.8.0;\n\ninterface IERC20 {\n    /// @param _owner The address from which the balance will be retrieved\n    /// @return balance the balance\n    function balanceOf(address _owner) external view returns (uint256 balance);\n\n    /// @notice send `_value` token to `_to` from `msg.sender`\n    /// @param _to The address of the recipient\n    /// @param _value The amount of token to be transferred\n    /// @return success Whether the transfer was successful or not\n    function transfer(\n        address _to,\n        uint256 _value\n    ) external returns (bool success);\n\n    /// @notice send `_value` token to `_to` from `_from` on the condition it is approved by `_from`\n    /// @param _from The address of the sender\n    /// @param _to The address of the recipient\n    /// @param _value The amount of token to be transferred\n    /// @return success Whether the transfer was successful or not\n    function transferFrom(\n        address _from,\n        address _to,\n        uint256 _value\n    ) external returns (bool success);\n\n    /// @notice `msg.sender` approves `_addr` to spend `_value` tokens\n    /// @param _spender The address of the account able to transfer the tokens\n    /// @param _value The amount of wei to be approved for transfer\n    /// @return success Whether the approval was successful or not\n    function approve(\n        address _spender,\n        uint256 _value\n    ) external returns (bool success);\n\n    /// @param _owner The address of the account owning tokens\n    /// @param _spender The address of the account able to transfer the tokens\n    /// @return remaining Amount of remaining tokens allowed to spent\n    function allowance(\n        address _owner,\n        address _spender\n    ) external view returns (uint256 remaining);\n\n    event Transfer(address indexed _from, address indexed _to, uint256 _value);\n    event Approval(\n        address indexed _owner,\n        address indexed _spender,\n        uint256 _value\n    );\n\n    event Burn(address indexed _from, uint256 amount);\n}\n\ncontract Team {\n    bool public taxStatus;\n    address public taxWallet;\n    uint256 public taxPercent;\n    uint256 public burnTaxPercent;\n    address public owner;\n\n    mapping(address => bool) private _taxFree;\n    event AddedTeam(address indexed addr);\n    event RemoveTeam(address indexed addr);\n    event UpdatedTax(uint256 indexed percent);\n    event ToggleTaxStatus(bool status);\n    event UpdatedBurnTaxPercent(uint256 percent);\n\n    constructor() {\n        taxWallet = address(1999); // change to team wallet\n        owner = msg.sender;\n        taxPercent = 6;\n        burnTaxPercent = 20;\n        addTeamWallet(owner);\n    }\n\n    modifier onlyOwer() {\n        require(msg.sender == owner, \"!owner\");\n        _;\n    }\n\n    function isTeam(address addr) public view returns (bool) {\n        return _taxFree[addr];\n    }\n\n    // add new team member wallet\n    function addTeamWallet(address addr) public {\n        require(!isTeam(addr));\n        _taxFree[addr] = true;\n        emit AddedTeam(addr);\n    }\n\n    // remove team wallet\n    function removeTeamWallet(address addr) public {\n        require(isTeam(addr));\n        _taxFree[addr] = false;\n        emit RemoveTeam(addr);\n    }\n\n    function updateBurnTaxPercent(uint256 percent) public {\n        burnTaxPercent = percent;\n        emit UpdatedBurnTaxPercent(percent);\n    }\n\n    function updateTax(uint256 percent) public {\n        taxPercent = percent;\n        emit UpdatedTax(percent);\n    }\n\n    function toggleTaxStatus() public onlyOwer {\n        taxStatus = !taxStatus;\n        emit ToggleTaxStatus(taxStatus);\n    }\n}\n\ncontract Cryeator is IERC20, Team {\n    mapping(address => uint256) private _balances;\n    mapping(address => mapping(address => uint256)) private _allowed;\n\n    uint256 public totalSupply;\n    string public name = \"Cryeator\";\n    uint8 public decimals = 18;\n    string public symbol = \"CRYT\";\n\n    constructor() {\n        _mint(_msgSender(), 100000 * 10 ** decimals);\n    }\n\n    function _msgSender() private view returns (address) {\n        return msg.sender;\n    }\n\n    function _mint(address _to, uint256 _value) private {\n        _balances[_to] += _value;\n        totalSupply += _value;\n        emit Transfer(address(0), _to, _value);\n    }\n\n    function balanceOf(address _owner) public view returns (uint256 balance) {\n        return _balances[_owner];\n    }\n\n    function _burn(address _from, uint256 _value) internal {\n        require(balanceOf(_from) >= _value, \"ERC20: balance too low\");\n        _balances[_from] -= _value;\n        totalSupply -= _value;\n        emit Transfer(_from, address(0), _value);\n        emit Burn(_from, _value);\n    }\n\n    function _payTax(address _from, uint256 _value) private {\n        // remove and burn X percent from the collected tax\n        uint256 _burnAmount = (_value * burnTaxPercent) / 100;\n        _value -= _burnAmount;\n        _burn(_from, _burnAmount);\n        _balances[_from] = balanceOf(_from) - _value;\n        _balances[taxWallet] = balanceOf(taxWallet) + _value;\n        emit Transfer(_from, taxWallet, _value);\n    }\n\n    function _transfer(address _from, address _to, uint256 _value) internal {\n        require(\n            _from != address(0) && _to != address(0),\n            \"Address unsupported\"\n        );\n        require(balanceOf(_from) >= _value, \"ERC20: balance too low\");\n\n        if (_value > 0 && (_from != address(this) && address(this) != _to) && (taxStatus && !isTeam(_from) && !isTeam(_to))) {\n            uint256 taxAmount = (_value * taxPercent) / 100;\n            _value -= taxAmount;\n            _payTax(_from, taxAmount);\n        }\n\n        _balances[_to] += _value;\n        _balances[_from] -= _value;\n        emit Transfer(_from, _to, _value);\n    }\n\n    function burn(uint256 value) public {\n        address _from = _msgSender();\n        _burn(_from, value);\n    }\n\n    function transfer(\n        address _to,\n        uint256 _value\n    ) public returns (bool success) {\n        _transfer(_msgSender(), _to, _value);\n        return true;\n    }\n\n    function transferFrom(\n        address _from,\n        address _to,\n        uint256 _value\n    ) public returns (bool success) {\n        address sender = _msgSender();\n        uint256 canSpend = allowance(_from, sender);\n        require(canSpend >= _value, \"ERC20: allowance too low\");\n\n        // update allowance\n        _allowed[_from][sender] -= _value;\n        // make transfer\n        _transfer(_from, _to, _value);\n        return true;\n    }\n\n    function approve(\n        address _spender,\n        uint256 _value\n    ) public returns (bool success) {\n        address _sender = _msgSender();\n        _allowed[_sender][_spender] = _value;\n        emit Approval(_sender, _spender, _value);\n        return true;\n    }\n\n    function allowance(\n        address _owner,\n        address _spender\n    ) public view returns (uint256 remaining) {\n        return _allowed[_owner][_spender];\n    }\n}\n",
  "sourcePath": "/home/john/Desktop/cryeator.com/contract/contracts/CryeatorToken.sol",
  "compiler": {
    "name": "solc",
    "version": "0.8.12+commit.f00d7308.Emscripten.clang"
  },
  "schemaVersion": "3.4.6",
  "updatedAt": "2023-10-11T22:05:22.762Z",
  "devdoc": {
    "kind": "dev",
    "methods": {},
    "version": 1
  },
  "userdoc": {
    "kind": "user",
    "methods": {},
    "version": 1
  }
}